{
    "_format": "hh-sol-artifact-1",
    "contractName": "Library",
    "sourceName": "contracts/library.sol",
    "abi": [
        {
            "inputs": [
                {
                    "internalType": "uint256",
                    "name": "_fee",
                    "type": "uint256"
                }
            ],
            "stateMutability": "nonpayable",
            "type": "constructor"
        },
        {
            "anonymous": false,
            "inputs": [
                {
                    "indexed": true,
                    "internalType": "address",
                    "name": "previousOwner",
                    "type": "address"
                },
                {
                    "indexed": true,
                    "internalType": "address",
                    "name": "newOwner",
                    "type": "address"
                }
            ],
            "name": "OwnershipTransferred",
            "type": "event"
        },
        {
            "anonymous": false,
            "inputs": [
                {
                    "indexed": false,
                    "internalType": "uint8",
                    "name": "id",
                    "type": "uint8"
                },
                {
                    "components": [
                        {
                            "internalType": "string",
                            "name": "name",
                            "type": "string"
                        },
                        {
                            "internalType": "uint8",
                            "name": "availableCopies",
                            "type": "uint8"
                        },
                        {
                            "internalType": "address[]",
                            "name": "previouslyTaken",
                            "type": "address[]"
                        }
                    ],
                    "indexed": false,
                    "internalType": "struct BookMap.Book",
                    "name": "book",
                    "type": "tuple"
                }
            ],
            "name": "addBookEvent",
            "type": "event"
        },
        {
            "anonymous": false,
            "inputs": [
                {
                    "indexed": true,
                    "internalType": "address",
                    "name": "takenBy",
                    "type": "address"
                },
                {
                    "indexed": false,
                    "internalType": "uint8",
                    "name": "id",
                    "type": "uint8"
                },
                {
                    "components": [
                        {
                            "internalType": "string",
                            "name": "name",
                            "type": "string"
                        },
                        {
                            "internalType": "uint8",
                            "name": "availableCopies",
                            "type": "uint8"
                        },
                        {
                            "internalType": "address[]",
                            "name": "previouslyTaken",
                            "type": "address[]"
                        }
                    ],
                    "indexed": false,
                    "internalType": "struct BookMap.Book",
                    "name": "book",
                    "type": "tuple"
                }
            ],
            "name": "borrowBookEvent",
            "type": "event"
        },
        {
            "anonymous": false,
            "inputs": [
                {
                    "indexed": true,
                    "internalType": "address",
                    "name": "returnedBy",
                    "type": "address"
                },
                {
                    "indexed": false,
                    "internalType": "uint8",
                    "name": "id",
                    "type": "uint8"
                },
                {
                    "components": [
                        {
                            "internalType": "string",
                            "name": "name",
                            "type": "string"
                        },
                        {
                            "internalType": "uint8",
                            "name": "availableCopies",
                            "type": "uint8"
                        },
                        {
                            "internalType": "address[]",
                            "name": "previouslyTaken",
                            "type": "address[]"
                        }
                    ],
                    "indexed": false,
                    "internalType": "struct BookMap.Book",
                    "name": "book",
                    "type": "tuple"
                }
            ],
            "name": "returnBookEvent",
            "type": "event"
        },
        {
            "inputs": [
                {
                    "internalType": "string",
                    "name": "_name",
                    "type": "string"
                }
            ],
            "name": "addBook",
            "outputs": [],
            "stateMutability": "nonpayable",
            "type": "function"
        },
        {
            "inputs": [],
            "name": "getAvailableBooks",
            "outputs": [
                {
                    "internalType": "uint8[]",
                    "name": "",
                    "type": "uint8[]"
                }
            ],
            "stateMutability": "view",
            "type": "function"
        },
        {
            "inputs": [],
            "name": "getBalance",
            "outputs": [
                {
                    "internalType": "uint256",
                    "name": "",
                    "type": "uint256"
                }
            ],
            "stateMutability": "view",
            "type": "function"
        },
        {
            "inputs": [
                {
                    "internalType": "uint8",
                    "name": "_id",
                    "type": "uint8"
                }
            ],
            "name": "listUsersWhoTookBook",
            "outputs": [
                {
                    "internalType": "address[]",
                    "name": "",
                    "type": "address[]"
                }
            ],
            "stateMutability": "view",
            "type": "function"
        },
        {
            "inputs": [],
            "name": "owner",
            "outputs": [
                {
                    "internalType": "address",
                    "name": "",
                    "type": "address"
                }
            ],
            "stateMutability": "view",
            "type": "function"
        },
        {
            "inputs": [],
            "name": "renounceOwnership",
            "outputs": [],
            "stateMutability": "nonpayable",
            "type": "function"
        },
        {
            "inputs": [
                {
                    "internalType": "uint8",
                    "name": "_id",
                    "type": "uint8"
                }
            ],
            "name": "returnBook",
            "outputs": [],
            "stateMutability": "nonpayable",
            "type": "function"
        },
        {
            "inputs": [
                {
                    "internalType": "uint8",
                    "name": "_id",
                    "type": "uint8"
                }
            ],
            "name": "takeBook",
            "outputs": [],
            "stateMutability": "payable",
            "type": "function"
        },
        {
            "inputs": [],
            "name": "takingFee",
            "outputs": [
                {
                    "internalType": "uint256",
                    "name": "",
                    "type": "uint256"
                }
            ],
            "stateMutability": "view",
            "type": "function"
        },
        {
            "inputs": [
                {
                    "internalType": "address",
                    "name": "newOwner",
                    "type": "address"
                }
            ],
            "name": "transferOwnership",
            "outputs": [],
            "stateMutability": "nonpayable",
            "type": "function"
        },
        {
            "inputs": [],
            "name": "withdraw",
            "outputs": [],
            "stateMutability": "nonpayable",
            "type": "function"
        },
        {
            "stateMutability": "payable",
            "type": "receive"
        }
    ],
    "bytecode": "0x60a06040523480156200001157600080fd5b5060405162003fd738038062003fd78339818101604052810190620000379190620001e8565b620000576200004b6200010260201b60201c565b6200010a60201b60201c565b6200008b7f955fa3a644b6f9d8513b3cd2bb118597f539880e63762e40a6d6142a7cd45a1c60001b620001ce60201b60201c565b620000bf7ffe9fdcd2b7fd6cce8093ac3941fee27ff4f1cd547a28de468b3c9e61ab641d6c60001b620001ce60201b60201c565b620000f37f618135f4e690beaa57491188ff7b3bdbc0df6d6b7774a9e73f87bcca3663afde60001b620001ce60201b60201c565b80608081815250505062000243565b600033905090565b60008060009054906101000a900473ffffffffffffffffffffffffffffffffffffffff169050816000806101000a81548173ffffffffffffffffffffffffffffffffffffffff021916908373ffffffffffffffffffffffffffffffffffffffff1602179055508173ffffffffffffffffffffffffffffffffffffffff168173ffffffffffffffffffffffffffffffffffffffff167f8be0079c531659141344cd1fd0a4f28419497f9722a3daafe3b4186f6b6457e060405160405180910390a35050565b50565b600081519050620001e28162000229565b92915050565b60006020828403121562000201576200020062000224565b5b60006200021184828501620001d1565b91505092915050565b6000819050919050565b600080fd5b62000234816200021a565b81146200024057600080fd5b50565b608051613d63620002746000396000818161025c01528181611106015281816111ed01526112b50152613d636000f3fe6080604052600436106100a05760003560e01c8063715018a611610064578063715018a61461017f5780637a8483c8146101965780638da5cb5b146101b2578063ca8dd83b146101dd578063d6c084d914610206578063f2fde38b14610231576100a7565b80630d6841fb146100ac57806312065fe0146100d75780633bc5f48a146101025780633ccfd60b1461012b57806351358e4b14610142576100a7565b366100a757005b600080fd5b3480156100b857600080fd5b506100c161025a565b6040516100ce9190613604565b60405180910390f35b3480156100e357600080fd5b506100ec61027e565b6040516100f99190613604565b60405180910390f35b34801561010e57600080fd5b5061012960048036038101906101249190612ee3565b610312565b005b34801561013757600080fd5b506101406106bc565b005b34801561014e57600080fd5b5061016960048036038101906101649190612f30565b610967565b6040516101769190613480565b60405180910390f35b34801561018b57600080fd5b50610194610c03565b005b6101b060048036038101906101ab9190612f30565b610c17565b005b3480156101be57600080fd5b506101c76117a5565b6040516101d49190613465565b60405180910390f35b3480156101e957600080fd5b5061020460048036038101906101ff9190612f30565b6117ce565b005b34801561021257600080fd5b5061021b611d35565b60405161022891906134a2565b60405180910390f35b34801561023d57600080fd5b5061025860048036038101906102539190612eb6565b611f2f565b005b7f000000000000000000000000000000000000000000000000000000000000000081565b6000610288611fb3565b6102b47f855a1d6bbd17fb7a0e28c85992c5018d0f037a8ecfd40135ce252247a47aba1860001b612031565b6102e07f31354d489e94456125ac22036472c968ded80a85295d001cf270ebbbd1c6f40960001b612031565b61030c7fdf3996a22abcf93da7716c015d5ee7af110b9d95bb55624e1f0a3f40ce29427260001b612031565b47905090565b61031a611fb3565b6103467f60e5a4cce6721cc0cd5e91baf8c68505cca929aa264f4932c6b67597c7e3939c60001b612031565b6103727fcda556aa6eea155e23484fd763b8633e1d9a31b8c94358e30462c037206f8e8160001b612031565b61039e7fcb290318665a2ccb0c00d0ead95f53c0a02b4a77448584dcffc42d07c65991f360001b612031565b60006001606484846040516020016103b792919061344c565b6040516020818303038152906040528051906020012060001c6103da919061398d565b6103e4919061377c565b90506104127f07691a309a9ce751e3eab4b5d9fc930305f47c4eac119b42d3c7ec5a2fc4036a60001b612031565b61043e7fe75375780a7d1a367568081397def86af3390687ce68b2028c54d2fac0dc40d960001b612031565b610446612ce5565b6104727f32bc7de0fd2b97edff2a15fd2548cfc3217f4a32ef51d6acabb91f0c8014b26560001b612031565b61049e7f7db2885b7e90844699e3db18109af3147b49bcdc3eebe542a14c7a2aff26a38a60001b612031565b83838080601f016020809104026020016040519081016040528093929190818152602001838380828437600081840152601f19601f8201169050808301925050505050505081600001819052506105177f559d430497adabe5215e5ce9a1b588c3cee1ff36c9fb788d3e08fc2b1c157aa660001b612031565b6105437f32b2448bf3210ed4d37956f9622027a2c60a64fedf95c6b0b0e5938cc99cfb5e60001b612031565b6001816020019060ff16908160ff16815250506105827f03650b748a431cb21c48608260b02d561be3cb667fc28b737dd6576fa9f9f3f960001b612031565b6105ae7f8e00748a4c052ca76c35a2e485b8865697e2cb6ecda952185d1ddf152087612b60001b612031565b6105c4828260016120349092919063ffffffff16565b6105f07f0c1b3f88e1d5a5c57e56f5fd43b6ec55b09854768b36c9810e2cac7b572d2e7660001b612031565b61061c7ff54d4e6d07083de9959750604591db5177fa852df9233ef1a02ca4f57cccc1a660001b612031565b61062582612459565b6106517f4d15122165ff3faa1b307a0e8447df707e31443b7d5abdff890ade9a8c6af9bb60001b612031565b61067d7f309203cdd2f949572d58bb9be5840b7a950886b6ee932199f0acccb89bd10d5c60001b612031565b7f19ecdad7858e7a3059abcd8b1bb8c68c0b3a1fc378f026bfc2f9e2b16fac7bba82826040516106ae92919061361f565b60405180910390a150505050565b6106c4611fb3565b6106f07fd4b702d06e601a49b76cad922050317f1f1cb55e31befc9dfebdbd3e80892d7e60001b612031565b61071c7f71e5c1d134c2ada5e9c9534ea677ceff1e5c4c010e2360e95d67ef7d9d2d5ae260001b612031565b6107487f2e28d169818f7ebc02fa9ab6c7074adc89a36f311794e1988fa63e472ea98e5160001b612031565b6107747fdb414cd580567ad894ea068671ed3ca7f70b076c83a2f0a97f59516d04b2eff360001b612031565b600047116107b7576040517f08c379a00000000000000000000000000000000000000000000000000000000081526004016107ae906135c4565b60405180910390fd5b6107e37fabf76c7f93b9615385427cdff3e991218da4d97f1a58f6479de3afae3371fb6760001b612031565b61080f7f1c007be3b71c56ad87c7139f99ac636db1ab6994b9c7f71c6ccfb33579ac287560001b612031565b61083b7f9e50386b28f120657807370ca804b07a576808849763b494080395ef6f17672360001b612031565b60003373ffffffffffffffffffffffffffffffffffffffff166108fc479081150290604051600060405180830381858888f1935050505090506108a07f706f4aa377c55395a51d6a0b61dbfddf09047547164c7d0ee8650b3e12dee8b660001b612031565b6108cc7fa798f19483ff6cb9dd4a79bf414527ea92783caaaf14e3c000f9874844745a0460001b612031565b6108f87fce10875262f89f1d3060e8b88bc1e8c9bba98829b7a5d9f429653ae8fcf77dea60001b612031565b80610938576040517f08c379a000000000000000000000000000000000000000000000000000000000815260040161092f90613564565b60405180910390fd5b6109647fa0c7ea5287b7b20fbf8539593a11201a87bae349b719332075f7e5b9e328311b60001b612031565b50565b6060816109967fbe422ad1a5dbb4c2b2f12205de34f4a37fd4207d80e1ca23bc715629571e0fcc60001b612031565b6109c27ff2d5b65a80bb84f6ff04a420114fb6fce53db3f8e73c318035b82f395d010de260001b612031565b6109ee7f9de238cb309663ee6ce94e98041153b2fd32892e9e305d1d83252950dd35fdb360001b612031565b610a1a7f5b1a27cb73c8460adeaa90a99a6b889dac517de6d7929a5816561ab70ea1db2260001b612031565b600160030160008260ff1660ff16815260200190815260200160002060009054906101000a900460ff16610a83576040517f08c379a0000000000000000000000000000000000000000000000000000000008152600401610a7a90613584565b60405180910390fd5b610aaf7f6e61ccd26905fb4c4918c92c8d25a743ca9cbe5a773ea00b09c3ac92c24cf74060001b612031565b610adb7ff1f43cc9b7e4ed1f46658ba4ed883f66e44ae9b5d40430b3ec6791099e13e7a260001b612031565b610b077f64bc2fc4c380a5c6dd03fb21e0f621ce29753a473a9d2bfbbaa8f436c4d0411660001b612031565b610b337fb741afbc1007570ff93207f486f3d675d8e57f6414f4c452211510eb0aedb8ee60001b612031565b610b5f7fd1ffdf8fb06f251735af11ab2ffd540179323c266be3296adbb296dcb73448e960001b612031565b610b7383600161271f90919063ffffffff16565b600201805480602002602001604051908101604052809291908181526020018280548015610bf657602002820191906000526020600020905b8160009054906101000a900473ffffffffffffffffffffffffffffffffffffffff1673ffffffffffffffffffffffffffffffffffffffff1681526020019060010190808311610bac575b5050505050915050919050565b610c0b611fb3565b610c1560006127c8565b565b80610c447fbe422ad1a5dbb4c2b2f12205de34f4a37fd4207d80e1ca23bc715629571e0fcc60001b612031565b610c707ff2d5b65a80bb84f6ff04a420114fb6fce53db3f8e73c318035b82f395d010de260001b612031565b610c9c7f9de238cb309663ee6ce94e98041153b2fd32892e9e305d1d83252950dd35fdb360001b612031565b610cc87f5b1a27cb73c8460adeaa90a99a6b889dac517de6d7929a5816561ab70ea1db2260001b612031565b600160030160008260ff1660ff16815260200190815260200160002060009054906101000a900460ff16610d31576040517f08c379a0000000000000000000000000000000000000000000000000000000008152600401610d2890613584565b60405180910390fd5b610d5d7f6e61ccd26905fb4c4918c92c8d25a743ca9cbe5a773ea00b09c3ac92c24cf74060001b612031565b610d897ff1f43cc9b7e4ed1f46658ba4ed883f66e44ae9b5d40430b3ec6791099e13e7a260001b612031565b610db57f139e7a3c852ddd93642730a8e6fd7ddcb19f3c19a961095c5607c613167a8f0f60001b612031565b610de17f92c130731e19f5870e862621bc8c2ed3bfb7d0ed8840a6d22720574993b2858c60001b612031565b610e0d7f3052b36d4d8da4e8ec842382a6a3d0f92c2f095cc8b9169fccc83abf3f13c5c760001b612031565b6000610e2383600161271f90919063ffffffff16565b9050610e517f1da77f7eb321c6d681cce6894b549b559748de18d81fa3ae554557a0785529b360001b612031565b610e7d7f044f3bea2239f53904dacf693599046963e0792dad3567ef6da12416428fde0f60001b612031565b610ea97f9ea3ef2e67bd874612ce0377c0969175c0a2918acdaf952e4c2ef7055122a39b60001b612031565b60008160010160009054906101000a900460ff1660ff1611610f00576040517f08c379a0000000000000000000000000000000000000000000000000000000008152600401610ef790613524565b60405180910390fd5b610f2c7fc76d80e7480e12e66848908f4a8905bb3e2a569842acde7775338a7de9202ccc60001b612031565b610f587fbeef6bb9481a1cd2a4b852a1c9b2725c43b1345881dad24d9a61206a908d051360001b612031565b610f847f5ca73a4b1be1c9497c7e37cf7af659e97f60e6d35a86681969ce01b5b0c3967660001b612031565b610fb07f73359fe98913ef1a566d71f698435550a5c36c20088b91bf3e09b8aaa789d3e360001b612031565b600560008460ff1660ff16815260200190815260200160002060003373ffffffffffffffffffffffffffffffffffffffff1673ffffffffffffffffffffffffffffffffffffffff16815260200190815260200160002060009054906101000a900460ff1615611054576040517f08c379a000000000000000000000000000000000000000000000000000000000815260040161104b906134e4565b60405180910390fd5b6110807fa45afbf2d2ec14fa7c3c038e3360aa7450cb8724fe071dda123cb7744ddb915060001b612031565b6110ac7f8d2622b5533f10534a0fe9738c9882beb505976cded93cbd9ae4cd3495e6da8c60001b612031565b6110d87fe2ef0b93ade70241a28436788d232a054ac90065e47063f23daa61c19ccf863960001b612031565b6111047fa1774436d250c3ae259d8e267637d25b8704848e3e2584b8ab030c4d25f57a3f60001b612031565b7f0000000000000000000000000000000000000000000000000000000000000000341015611167576040517f08c379a000000000000000000000000000000000000000000000000000000000815260040161115e906135e4565b60405180910390fd5b6111937fc37a97c389bf851d5f7eb4c663308b2a68ab56fc941755c593b4f2d39553549a60001b612031565b6111bf7f7baa8b2ffda39b19e179758dac5aeb31c168dea49b8ee83cc9690b85ad54033060001b612031565b6111eb7f83b6585434f4c9e84e5e68bc610c70b899f54804a6e337ab6a10dc0d61b44df860001b612031565b7f00000000000000000000000000000000000000000000000000000000000000003411156113f15761123f7f769de0ec8ea427ee65254573c94451d1a82fdca7db0188f8973c0212e5bf698560001b612031565b61126b7f92f7d6c9e4b02962321d9e58a6282d7f5c6b9eee30e96d290bd174e4d7c3a8a260001b612031565b6112977f3d4130a632361407d4d6f858d98f3f68a8fc3783bf441f21d61fdecd750ea0ea60001b612031565b60003373ffffffffffffffffffffffffffffffffffffffff166108fc7f0000000000000000000000000000000000000000000000000000000000000000346112df91906137b3565b9081150290604051600060405180830381858888f1935050505090506113277fc273ee323507680e41f5aaa87a0db79666d0b63e4e53d121faff9e75d19538b760001b612031565b6113537fb2441606130f550e5d7d75dd6af19a899ccd2a9d0eebbc716bbf2f87763e00d260001b612031565b61137f7ff2928f106460d89abdbce7bcc181fad49cbe58b80d77c635bb769b4ab7fc28af60001b612031565b806113bf576040517f08c379a00000000000000000000000000000000000000000000000000000000081526004016113b690613564565b60405180910390fd5b6113eb7f127d3066440c0f63e298c89de2c78f5508b12551f2fd04e47f54bba6a8f4daba60001b612031565b5061141e565b61141d7fa9c37e442f226a5a2abdb3219922da4e1b80b9216fd7694041c5f9dc5498e86060001b612031565b5b61144a7f28266ccaf1991a20108e56803db85aa340f003a8e62e227d2a1d7ad22097749360001b612031565b6114767f2b4449c22533146dad1f7ca012dc95f1b1cf7c2baf54750aa82aedf4fc58a56160001b612031565b80600201339080600181540180825580915050600190039060005260206000200160009091909190916101000a81548173ffffffffffffffffffffffffffffffffffffffff021916908373ffffffffffffffffffffffffffffffffffffffff1602179055506115077fb2224b2ec18479b22e127dee7705f5dc5e86991dcc4799a68f46960df1c4e8d760001b612031565b6115337f0cc2a77f443ad7c96d3a7eccba305bf23112416d243792ad19615fa35b2ae1e260001b612031565b6001600560008560ff1660ff16815260200190815260200160002060003373ffffffffffffffffffffffffffffffffffffffff1673ffffffffffffffffffffffffffffffffffffffff16815260200190815260200160002060006101000a81548160ff0219169083151502179055506115ce7fa3c5f44cb88fa41bffc468489b394ec59404dcb72b906d7e9ec0362e64b747d360001b612031565b6115fa7f62d0ffd968ee45bc1265f1ac39f9620f414e8274ec3cc848e0223205406d523160001b612031565b600081600101600081819054906101000a900460ff16611619906138d3565b91906101000a81548160ff021916908360ff160217905560ff1614156116cb576116657f14aa7ed0d53b97e84530a6b7dbce4be3e6a13b4d20109dd8d31b321da377e9cc60001b612031565b6116917f7a0e9a0f2c1e6b66e5d622905bcf495c23eef73888bfdde52a68cb113481ae1b60001b612031565b6116bd7fee27142b362ff7dd9723ebe870b7f5cbce0bf87919bb18611721bdc562b6b64460001b612031565b6116c68361288c565b6116f8565b6116f77f0b5cb9cfca492e8bfb8aa2626e34f10cc961a088dd69de48a8948068a7b6717260001b612031565b5b6117247f3fa812e752fc2ecce44b2d98907683909831191c05e2878a0e90040d12701e0e60001b612031565b6117507fb9fc8abfcac8fc9fffe6ea156061d3c4c849be1735781adf1407132dbeb46eca60001b612031565b3373ffffffffffffffffffffffffffffffffffffffff167f8ba729f9997f45a34ed71bd79545a3b35a9c71099ee5c194139fb6995f6088e9848360405161179892919061364f565b60405180910390a2505050565b60008060009054906101000a900473ffffffffffffffffffffffffffffffffffffffff16905090565b806117fb7fbe422ad1a5dbb4c2b2f12205de34f4a37fd4207d80e1ca23bc715629571e0fcc60001b612031565b6118277ff2d5b65a80bb84f6ff04a420114fb6fce53db3f8e73c318035b82f395d010de260001b612031565b6118537f9de238cb309663ee6ce94e98041153b2fd32892e9e305d1d83252950dd35fdb360001b612031565b61187f7f5b1a27cb73c8460adeaa90a99a6b889dac517de6d7929a5816561ab70ea1db2260001b612031565b600160030160008260ff1660ff16815260200190815260200160002060009054906101000a900460ff166118e8576040517f08c379a00000000000000000000000000000000000000000000000000000000081526004016118df90613584565b60405180910390fd5b6119147f6e61ccd26905fb4c4918c92c8d25a743ca9cbe5a773ea00b09c3ac92c24cf74060001b612031565b6119407ff1f43cc9b7e4ed1f46658ba4ed883f66e44ae9b5d40430b3ec6791099e13e7a260001b612031565b61196c7f1684f722fa24230970afe4524da45319d4f1dd899739b507b3825d652e0d788e60001b612031565b6119987f82a306b9c7682a294e18edf4380b0a0a04fe8a7ed6e9cb73344a7ca2a51f3db660001b612031565b6119c47fd42e28477769996127a55d3aa22800c04042cb39ce40c5050c1d84bbe177c5bf60001b612031565b6119f07fc35b63e74b54aae3cbdca2edab7e5b7831e1be6202b86ca22d5dabf53346135860001b612031565b600560008360ff1660ff16815260200190815260200160002060003373ffffffffffffffffffffffffffffffffffffffff1673ffffffffffffffffffffffffffffffffffffffff16815260200190815260200160002060009054906101000a900460ff16611a93576040517f08c379a0000000000000000000000000000000000000000000000000000000008152600401611a8a906134c4565b60405180910390fd5b611abf7f8ea6d9b951903b9c1971e35b340499ad2b747f786f5bfc505ead8449aefcdf7160001b612031565b611aeb7ff5c6404593a2db089f89ca315b27c784022946279c2a2dc2f61ae93c6d6d067960001b612031565b611b177fa94cb26fe6558903d55ef3cbe74607a73ce963ac9561b02e97cff8faf828795060001b612031565b6000611b2d83600161271f90919063ffffffff16565b9050611b5b7f56fc7e6df31241b6c8cf44a33c3183c4627924f4ec09a2acd745a70157c2235960001b612031565b80600101600081819054906101000a900460ff1680929190611b7c90613963565b91906101000a81548160ff021916908360ff16021790555050611bc17f2aa8f74c18f1f1e13497b59a27be235bdbd967ef0e3059eddb0f7ed13fc57c6560001b612031565b600560008460ff1660ff16815260200190815260200160002060003373ffffffffffffffffffffffffffffffffffffffff1673ffffffffffffffffffffffffffffffffffffffff16815260200190815260200160002060006101000a81549060ff0219169055611c537f4a5ffb6c0bd718caf9abb2272bd4193d8ea09172075c0bd144fb26e6a30f85bf60001b612031565b611c7f7f6895c4907507a27ba92ce58149f7c35d2a0e0a9d914f0cf8ee1c5651768013ce60001b612031565b611c8883612459565b611cb47f919d94a0d6c84a241d1d35ccce71ce3fa3e27bdb45148af9fb515058f401842160001b612031565b611ce07f601ae7bb8dc650a4e7b5c657733693a522cbf98ce06578bee8086d4c539611b260001b612031565b3373ffffffffffffffffffffffffffffffffffffffff167fd8759f21db4adad6982b2fb6a5b2b252a8c0e6dc16c280764800d99fd72e55f08483604051611d2892919061364f565b60405180910390a2505050565b6060611d637fd63d6087b584a5b7741931c83d24dfde92f7a91100e6915dd29fa12a34aa703460001b612031565b611d8f7f96dc1a00e1e271fb698bfc817e7d9e9180b27e350508da81b249d86c7017806d60001b612031565b611dbb7f2dbcf07a49d084e134abb9aa4cf3e8d323574a779f86129fc02e8fb8b6e002de60001b612031565b611de77fc4e2352e226d07559b8cab061582e87e82de0cd4993e577c97c5041e10213e0f60001b612031565b600060068054905011611e2f576040517f08c379a0000000000000000000000000000000000000000000000000000000008152600401611e2690613544565b60405180910390fd5b611e5b7f3bbc2bfcceef4e9a72d5f4be8840ab08854524d0b981e8ef4cf44c4c79d0d56160001b612031565b611e877fd27c700592cd09d7654ca7c59964b27baac3690ff103726f968e87f43fe5824860001b612031565b611eb37f3deea24355c312375adfd30f6c5425f4d8ac4fb8c5c52979c2bdae8286b5b01860001b612031565b6006805480602002602001604051908101604052809291908181526020018280548015611f2557602002820191906000526020600020906000905b82829054906101000a900460ff1660ff1681526020019060010190602082600001049283019260010382029150808411611eee5790505b5050505050905090565b611f37611fb3565b600073ffffffffffffffffffffffffffffffffffffffff168173ffffffffffffffffffffffffffffffffffffffff161415611fa7576040517f08c379a0000000000000000000000000000000000000000000000000000000008152600401611f9e90613504565b60405180910390fd5b611fb0816127c8565b50565b611fbb612cda565b73ffffffffffffffffffffffffffffffffffffffff16611fd96117a5565b73ffffffffffffffffffffffffffffffffffffffff161461202f576040517f08c379a0000000000000000000000000000000000000000000000000000000008152600401612026906135a4565b60405180910390fd5b565b50565b6120607f564440b37906cec08c0742b4a358e88669ccf6638886f44d95a86fcb4092af9160001b612ce2565b61208c7f3c0023ff45186ef03b462e02add7ae3f5575cfe3041358be3357a85d17af5f7660001b612ce2565b6120b87f381586f76f466592036f2ea18044962293d6335a8ba9082f0a0c6ea8422b582c60001b612ce2565b8260030160008360ff1660ff16815260200190815260200160002060009054906101000a900460ff1615612197576121127ff6476ffcfcc529dbffc143a7deb970a9f81e27c65e62423e796e7c4f16d690f760001b612ce2565b61213e7f70a8001378a8db1da560fe217bd9d97f06554db742da90d9d31b5cca67cd8a4960001b612ce2565b8260010160008360ff1660ff168152602001908152602001600020600101600081819054906101000a900460ff168092919061217990613963565b91906101000a81548160ff021916908360ff16021790555050612454565b6121c37f53284e55637e58ac36f8b2d5cb4d85abf1555f08078f53309f0fa62eb03df06960001b612ce2565b6121ef7f9ec6bb9af7df7666f3556e3917bec05e1666bc13a0892f6ec92b4cf9b08a101160001b612ce2565b61221b7f54dbe99fcd1b3a2b4d89c356cede2cc748651c716510ec853c3c7e680a5058da60001b612ce2565b60018360030160008460ff1660ff16815260200190815260200160002060006101000a81548160ff02191690831515021790555061227b7fe9f910ee549151d5e44c246befb37b7fff4660fc8a4dd163181d3183de282c8960001b612ce2565b6122a77ffa155c1b942ffcaff847c3c1f613c109e94d6744192ab29e3e47cc63659417b760001b612ce2565b808360010160008460ff1660ff16815260200190815260200160002060008201518160000190805190602001906122df929190612d09565b5060208201518160010160006101000a81548160ff021916908360ff160217905550604082015181600201908051906020019061231d929190612d8f565b5090505061234d7fddced52a9bea58cbdc7b6b1b5b072080ae5c87d6ce8deb8f8a250f0334aace7460001b612ce2565b6123797f0f8d396c57a6cd27fbb4017b773d3ce1ca7584fe184737371e4d56250ec1a79260001b612ce2565b82600001805490508360020160008460ff1660ff16815260200190815260200160002060006101000a81548160ff021916908360ff1602179055506123e07f276d445a86ff688f26af5e2782626d41f8fa19230037cced86cbeca7456397f560001b612ce2565b61240c7fa3d54539e8962c27530f6959eed31f3632b84666dcb603f7288958950c65f7a760001b612ce2565b826000018290806001815401808255809150506001900390600052602060002090602091828204019190069091909190916101000a81548160ff021916908360ff1602179055505b505050565b6124857f8c4b65d157ec2cac2f9264edb38ba0d086e9e9bb16c0256e0745f57beb600a9560001b612031565b6124b17fe6d29fdafc3fd897b42b890eae7dadcccb4ed07a3e69b0388d18a99bab5b16bd60001b612031565b6124dd7f696a923f40a0f6a8c2db1d6f7d89c46daf04d8330c1e073f68ad415ca2b87a7d60001b612031565b600860008260ff1660ff16815260200190815260200160002060009054906101000a900460ff166126ef576125347fd7ee7ce8102a5c2f2304e0a37eaf4c9a66426f804b757ab20a6a2199a1fe67a060001b612031565b6125607fd6829d203aab67d3219c4758c252286c5c38a69a0096410444eb92cd1fe1af0860001b612031565b61258c7ff50f39841c0eceead27dbf3149073d8d7a110f752c59cbe02434f2daca8eb21760001b612031565b6001600860008360ff1660ff16815260200190815260200160002060006101000a81548160ff0219169083151502179055506125ea7f5bf959674af977c8e82012038c63165d9ed3038cda48ee86cb86efdfa449ff5c60001b612031565b6126167f36f9d143caeba3d624af9bb4226d99d7f4f7466d8b7608dbe51f935982ef334860001b612031565b600680549050600760008360ff1660ff16815260200190815260200160002060006101000a81548160ff021916908360ff1602179055506126797fb099c175be5f32a8548744b7972653dab52d30390302e644292281473dd511e460001b612031565b6126a57f7d70c7a5ef3b2f18c3a27abea9712c4034464acb62529b9b81d30bce7d1517ac60001b612031565b60068190806001815401808255809150506001900390600052602060002090602091828204019190069091909190916101000a81548160ff021916908360ff16021790555061271c565b61271b7fc3acb4b1ff36871a1a7a1fc4cc4a434453fbf9112af48e14059b2da0cd2158a160001b612031565b5b50565b600061274d7f6ce726b5ce9bdd9e026ce8f7fcaebbdcda073cbc2df230279c347ccfd469f55560001b612ce2565b6127797f0f831a1bf640f8895891667f1af8f13ca75d50fee789a8bc3b50214c86b3c8dc60001b612ce2565b6127a57f07d86ade4d796d2be2e63063ae3f5c82df9010081d9c362037c026926fe0207060001b612ce2565b8260010160008360ff1660ff168152602001908152602001600020905092915050565b60008060009054906101000a900473ffffffffffffffffffffffffffffffffffffffff169050816000806101000a81548173ffffffffffffffffffffffffffffffffffffffff021916908373ffffffffffffffffffffffffffffffffffffffff1602179055508173ffffffffffffffffffffffffffffffffffffffff168173ffffffffffffffffffffffffffffffffffffffff167f8be0079c531659141344cd1fd0a4f28419497f9722a3daafe3b4186f6b6457e060405160405180910390a35050565b6128b87fc6f04e9fae26d0ae658c1b84282faa8ab3ee81cf28f8420b8608762e6eb065ca60001b612031565b6128e47f9ebae102bc5ee9a5876a1c009ca9afabe46a3819b6b321c37f7e6595ae441d2260001b612031565b6129107f73a59295758ccf62833f7e2482810c56b06bac4b23d6fccda5ecccebdfb684bd60001b612031565b6000600760008360ff1660ff16815260200190815260200160002060009054906101000a900460ff1690506129677f3d45cf36e25102d2caffcf1fea5d846c06a86ddd596fbf82fd162221f34e043860001b612031565b6129937f6f12f6252e215f8ac1fc94a11596502d13a03bdce525601db573ee8a4842f6c660001b612031565b600060016006805490506129a791906137e7565b90506129d57f47a43eb5e66e23e4e7bec321b91be1b12b909997d5e5e36529e0f773adb6582d60001b612031565b612a017fe69504049447c62547b32bac5c70a2550c17d5a5077fa3b41958e72b58b1215360001b612031565b600060068260ff1681548110612a1a57612a19613a7a565b5b90600052602060002090602091828204019190069054906101000a900460ff169050612a687f487c0798a505c78874a9822ddf41737b5ae5cde9013995a7f9f428b6eae1e3b960001b612031565b612a947fbe584f9d028db584dfead3a3acd28a5054f97d18cae15b373de695a9030132cd60001b612031565b60068260ff1681548110612aab57612aaa613a7a565b5b90600052602060002090602091828204019190069054906101000a900460ff1660068460ff1681548110612ae257612ae1613a7a565b5b90600052602060002090602091828204019190066101000a81548160ff021916908360ff160217905550612b387fb0278908e52a8dbc7600a3b1a0fca859c69aecef00c44fc798c0be5cd715a77c60001b612031565b612b647f13a00425b9b95cdb34d1efade1c48a095efcc1d3942ebca1a9a8c9e3cdf7693160001b612031565b6006805480612b7657612b75613a4b565b5b60019003818190600052602060002090602091828204019190066101000a81549060ff02191690559055612bcc7f4f511cd1a8d03d41bcf1550f5a2715d1285c964691317e543df081e3e11f831460001b612031565b612bf87fb3631c7426db243f31427456b52268933aeddb1fc6e65bde8a0ab5977bf9b50560001b612031565b82600760008360ff1660ff16815260200190815260200160002060006101000a81548160ff021916908360ff160217905550612c567f7a65b3300613de820c4ac682895ba64e1b5214225ff6fe652c7888dc8a6b5f0c60001b612031565b600760008560ff1660ff16815260200190815260200160002060006101000a81549060ff0219169055612cab7f85d33866f339bc5c5b4bfb6a0c726a807d759c1e72ad5ebbf00b0ace925f890060001b612031565b600860008560ff1660ff16815260200190815260200160002060006101000a81549060ff021916905550505050565b600033905090565b50565b604051806060016040528060608152602001600060ff168152602001606081525090565b828054612d15906138fd565b90600052602060002090601f016020900481019282612d375760008555612d7e565b82601f10612d5057805160ff1916838001178555612d7e565b82800160010185558215612d7e579182015b82811115612d7d578251825591602001919060010190612d62565b5b509050612d8b9190612e19565b5090565b828054828255906000526020600020908101928215612e08579160200282015b82811115612e075782518260006101000a81548173ffffffffffffffffffffffffffffffffffffffff021916908373ffffffffffffffffffffffffffffffffffffffff16021790555091602001919060010190612daf565b5b509050612e159190612e19565b5090565b5b80821115612e32576000816000905550600101612e1a565b5090565b600081359050612e4581613cff565b92915050565b60008083601f840112612e6157612e60613ac1565b5b8235905067ffffffffffffffff811115612e7e57612e7d613abc565b5b602083019150836001820283011115612e9a57612e99613ac6565b5b9250929050565b600081359050612eb081613d16565b92915050565b600060208284031215612ecc57612ecb613ad0565b5b6000612eda84828501612e36565b91505092915050565b60008060208385031215612efa57612ef9613ad0565b5b600083013567ffffffffffffffff811115612f1857612f17613acb565b5b612f2485828601612e4b565b92509250509250929050565b600060208284031215612f4657612f45613ad0565b5b6000612f5484828501612ea1565b91505092915050565b6000612f698383612f8d565b60208301905092915050565b6000612f81838361342e565b60208301905092915050565b612f9681613848565b82525050565b612fa581613848565b82525050565b6000612fb6826136c9565b612fc0818561371c565b9350612fcb8361367f565b8060005b83811015612ffc578151612fe38882612f5d565b9750612fee836136f5565b925050600181019050612fcf565b5085935050505092915050565b6000613014826136c9565b61301e818561372d565b93506130298361367f565b8060005b8381101561305a5781516130418882612f5d565b975061304c836136f5565b92505060018101905061302d565b5085935050505092915050565b6000613072826136d4565b61307c818561371c565b93506130878361368f565b8060005b838110156130bf5761309c82613aa9565b6130a68882612f5d565b97506130b183613702565b92505060018101905061308b565b5085935050505092915050565b60006130d7826136df565b6130e1818561373e565b93506130ec836136a4565b8060005b8381101561311d5781516131048882612f75565b975061310f8361370f565b9250506001810190506130f0565b5085935050505092915050565b60006131368385613771565b9350613143838584613891565b82840190509392505050565b600061315a826136ea565b613164818561374f565b93506131748185602086016138a0565b61317d81613ad5565b840191505092915050565b60008154613195816138fd565b61319f818661374f565b945060018216600081146131ba57600181146131cc576131ff565b60ff19831686526020860193506131ff565b6131d5856136b4565b60005b838110156131f7578154818901526001820191506020810190506131d8565b808801955050505b50505092915050565b6000613215601f83613760565b915061322082613af3565b602082019050919050565b6000613238602d83613760565b915061324382613b1c565b604082019050919050565b600061325b602683613760565b915061326682613b6b565b604082019050919050565b600061327e602383613760565b915061328982613bba565b604082019050919050565b60006132a1601c83613760565b91506132ac82613c09565b602082019050919050565b60006132c4600b83613760565b91506132cf82613c32565b602082019050919050565b60006132e7601a83613760565b91506132f282613c5b565b602082019050919050565b600061330a602083613760565b915061331582613c84565b602082019050919050565b600061332d601783613760565b915061333882613cad565b602082019050919050565b6000613350601f83613760565b915061335b82613cd6565b602082019050919050565b60006060830160008301518482036000860152613383828261314f565b9150506020830151613398602086018261342e565b50604083015184820360408601526133b08282612fab565b9150508091505092915050565b600060608301600080840185830360008701526133da8382613188565b925050600184015490506133ed81613949565b6133fa602087018261342e565b506002840185830360408701526134118382613067565b925050819250505092915050565b6134288161387a565b82525050565b61343781613884565b82525050565b61344681613884565b82525050565b600061345982848661312a565b91508190509392505050565b600060208201905061347a6000830184612f9c565b92915050565b6000602082019050818103600083015261349a8184613009565b905092915050565b600060208201905081810360008301526134bc81846130cc565b905092915050565b600060208201905081810360008301526134dd81613208565b9050919050565b600060208201905081810360008301526134fd8161322b565b9050919050565b6000602082019050818103600083015261351d8161324e565b9050919050565b6000602082019050818103600083015261353d81613271565b9050919050565b6000602082019050818103600083015261355d81613294565b9050919050565b6000602082019050818103600083015261357d816132b7565b9050919050565b6000602082019050818103600083015261359d816132da565b9050919050565b600060208201905081810360008301526135bd816132fd565b9050919050565b600060208201905081810360008301526135dd81613320565b9050919050565b600060208201905081810360008301526135fd81613343565b9050919050565b6000602082019050613619600083018461341f565b92915050565b6000604082019050613634600083018561343d565b81810360208301526136468184613366565b90509392505050565b6000604082019050613664600083018561343d565b818103602083015261367681846133bd565b90509392505050565b6000819050602082019050919050565b60008190508160005260206000209050919050565b6000819050602082019050919050565b60008190508160005260206000209050919050565b600081519050919050565b600081549050919050565b600081519050919050565b600081519050919050565b6000602082019050919050565b6000600182019050919050565b6000602082019050919050565b600082825260208201905092915050565b600082825260208201905092915050565b600082825260208201905092915050565b600082825260208201905092915050565b600082825260208201905092915050565b600081905092915050565b600061378782613884565b915061379283613884565b92508260ff038211156137a8576137a76139be565b5b828201905092915050565b60006137be8261387a565b91506137c98361387a565b9250828210156137dc576137db6139be565b5b828203905092915050565b60006137f282613884565b91506137fd83613884565b9250828210156138105761380f6139be565b5b828203905092915050565b600073ffffffffffffffffffffffffffffffffffffffff82169050919050565b600060ff82169050919050565b60006138538261385a565b9050919050565b600073ffffffffffffffffffffffffffffffffffffffff82169050919050565b6000819050919050565b600060ff82169050919050565b82818337600083830152505050565b60005b838110156138be5780820151818401526020810190506138a3565b838111156138cd576000848401525b50505050565b60006138de82613884565b915060008214156138f2576138f16139be565b5b600182039050919050565b6000600282049050600182168061391557607f821691505b6020821081141561392957613928613a1c565b5b50919050565b600061394261393d83613ae6565b61381b565b9050919050565b600061395c61395783613ae6565b61383b565b9050919050565b600061396e82613884565b915060ff821415613982576139816139be565b5b600182019050919050565b600061399882613884565b91506139a383613884565b9250826139b3576139b26139ed565b5b828206905092915050565b7f4e487b7100000000000000000000000000000000000000000000000000000000600052601160045260246000fd5b7f4e487b7100000000000000000000000000000000000000000000000000000000600052601260045260246000fd5b7f4e487b7100000000000000000000000000000000000000000000000000000000600052602260045260246000fd5b7f4e487b7100000000000000000000000000000000000000000000000000000000600052603160045260246000fd5b7f4e487b7100000000000000000000000000000000000000000000000000000000600052603260045260246000fd5b6000613ab5825461392f565b9050919050565b600080fd5b600080fd5b600080fd5b600080fd5b600080fd5b6000601f19601f8301169050919050565b60008160001c9050919050565b7f5573657220686173206e6f7420626f72726f776564207468697320626f6f6b00600082015250565b7f557365722068617320616c726561647920626f72726f776564206120636f707960008201527f206f66207468697320626f6f6b00000000000000000000000000000000000000602082015250565b7f4f776e61626c653a206e6577206f776e657220697320746865207a65726f206160008201527f6464726573730000000000000000000000000000000000000000000000000000602082015250565b7f426f6f6b206973206e6f742063757272656e746c79206e6f7420617661696c6160008201527f626c650000000000000000000000000000000000000000000000000000000000602082015250565b7f546865726520617265206e6f20617661696c61626c6520626f6f6b7300000000600082015250565b7f73656e64206661696c6564000000000000000000000000000000000000000000600082015250565b7f5468697320626f6f6b206973206e6f7420617661696c61626c65000000000000600082015250565b7f4f776e61626c653a2063616c6c6572206973206e6f7420746865206f776e6572600082015250565b7f4e6f206665657320746f2062652077697468647261776e000000000000000000600082015250565b7f4e6f7420656e6f75676820657468657220746f20626f72726f7720626f6f6b00600082015250565b613d0881613848565b8114613d1357600080fd5b50565b613d1f81613884565b8114613d2a57600080fd5b5056fea264697066735822122059185bedb9147bd4dbbd4f4a534295f5e48b17f9ad9a9ad022d46283d97b822364736f6c63430008070033",
    "linkReferences": {},
    "deployedLinkReferences": {}
}