{
  "_format": "hh-sol-artifact-1",
  "contractName": "Library",
  "sourceName": "contracts/library.sol",
  "abi": [
    {
      "inputs": [
        {
          "internalType": "uint256",
          "name": "_fee",
          "type": "uint256"
        },
        {
          "internalType": "uint256",
          "name": "_limit",
          "type": "uint256"
        },
        {
          "internalType": "address",
          "name": "_tokenAddress",
          "type": "address"
        }
      ],
      "stateMutability": "nonpayable",
      "type": "constructor"
    },
    {
      "anonymous": false,
      "inputs": [
        {
          "indexed": true,
          "internalType": "address",
          "name": "account",
          "type": "address"
        },
        {
          "indexed": false,
          "internalType": "uint256",
          "name": "amount",
          "type": "uint256"
        }
      ],
      "name": "Deposit",
      "type": "event"
    },
    {
      "anonymous": false,
      "inputs": [
        {
          "indexed": true,
          "internalType": "address",
          "name": "previousOwner",
          "type": "address"
        },
        {
          "indexed": true,
          "internalType": "address",
          "name": "newOwner",
          "type": "address"
        }
      ],
      "name": "OwnershipTransferred",
      "type": "event"
    },
    {
      "anonymous": false,
      "inputs": [
        {
          "indexed": true,
          "internalType": "address",
          "name": "account",
          "type": "address"
        },
        {
          "indexed": false,
          "internalType": "uint256",
          "name": "amount",
          "type": "uint256"
        }
      ],
      "name": "Withdraw",
      "type": "event"
    },
    {
      "anonymous": false,
      "inputs": [
        {
          "indexed": false,
          "internalType": "bytes32",
          "name": "id",
          "type": "bytes32"
        },
        {
          "components": [
            {
              "internalType": "string",
              "name": "isbn",
              "type": "string"
            },
            {
              "internalType": "uint8",
              "name": "availableCopies",
              "type": "uint8"
            },
            {
              "internalType": "address[]",
              "name": "previouslyTaken",
              "type": "address[]"
            }
          ],
          "indexed": false,
          "internalType": "struct BookMap.Book",
          "name": "book",
          "type": "tuple"
        }
      ],
      "name": "addBookEvent",
      "type": "event"
    },
    {
      "anonymous": false,
      "inputs": [
        {
          "indexed": true,
          "internalType": "address",
          "name": "takenBy",
          "type": "address"
        },
        {
          "indexed": true,
          "internalType": "bytes32",
          "name": "id",
          "type": "bytes32"
        },
        {
          "components": [
            {
              "internalType": "string",
              "name": "isbn",
              "type": "string"
            },
            {
              "internalType": "uint8",
              "name": "availableCopies",
              "type": "uint8"
            },
            {
              "internalType": "address[]",
              "name": "previouslyTaken",
              "type": "address[]"
            }
          ],
          "indexed": false,
          "internalType": "struct BookMap.Book",
          "name": "book",
          "type": "tuple"
        }
      ],
      "name": "borrowBookEvent",
      "type": "event"
    },
    {
      "anonymous": false,
      "inputs": [
        {
          "indexed": true,
          "internalType": "address",
          "name": "returnedBy",
          "type": "address"
        },
        {
          "indexed": true,
          "internalType": "bytes32",
          "name": "id",
          "type": "bytes32"
        },
        {
          "components": [
            {
              "internalType": "string",
              "name": "isbn",
              "type": "string"
            },
            {
              "internalType": "uint8",
              "name": "availableCopies",
              "type": "uint8"
            },
            {
              "internalType": "address[]",
              "name": "previouslyTaken",
              "type": "address[]"
            }
          ],
          "indexed": false,
          "internalType": "struct BookMap.Book",
          "name": "book",
          "type": "tuple"
        }
      ],
      "name": "returnBookEvent",
      "type": "event"
    },
    {
      "inputs": [
        {
          "internalType": "string",
          "name": "_isbn",
          "type": "string"
        }
      ],
      "name": "addBook",
      "outputs": [],
      "stateMutability": "nonpayable",
      "type": "function"
    },
    {
      "inputs": [
        {
          "internalType": "bytes32",
          "name": "_id",
          "type": "bytes32"
        },
        {
          "internalType": "uint256",
          "name": "value",
          "type": "uint256"
        },
        {
          "internalType": "uint256",
          "name": "deadline",
          "type": "uint256"
        },
        {
          "internalType": "uint8",
          "name": "v",
          "type": "uint8"
        },
        {
          "internalType": "bytes32",
          "name": "r",
          "type": "bytes32"
        },
        {
          "internalType": "bytes32",
          "name": "s",
          "type": "bytes32"
        }
      ],
      "name": "borrowBook",
      "outputs": [],
      "stateMutability": "nonpayable",
      "type": "function"
    },
    {
      "inputs": [],
      "name": "deposit",
      "outputs": [],
      "stateMutability": "payable",
      "type": "function"
    },
    {
      "inputs": [
        {
          "internalType": "uint8",
          "name": "_index",
          "type": "uint8"
        }
      ],
      "name": "getAvailableBook",
      "outputs": [
        {
          "components": [
            {
              "internalType": "string",
              "name": "isbn",
              "type": "string"
            },
            {
              "internalType": "uint8",
              "name": "availableCopies",
              "type": "uint8"
            },
            {
              "internalType": "address[]",
              "name": "previouslyTaken",
              "type": "address[]"
            }
          ],
          "internalType": "struct BookMap.Book",
          "name": "",
          "type": "tuple"
        }
      ],
      "stateMutability": "view",
      "type": "function"
    },
    {
      "inputs": [],
      "name": "getAvailableBooksLength",
      "outputs": [
        {
          "internalType": "uint256",
          "name": "",
          "type": "uint256"
        }
      ],
      "stateMutability": "view",
      "type": "function"
    },
    {
      "inputs": [],
      "name": "getBalance",
      "outputs": [
        {
          "internalType": "uint256",
          "name": "",
          "type": "uint256"
        }
      ],
      "stateMutability": "view",
      "type": "function"
    },
    {
      "inputs": [
        {
          "internalType": "bytes32",
          "name": "_id",
          "type": "bytes32"
        }
      ],
      "name": "getBook",
      "outputs": [
        {
          "components": [
            {
              "internalType": "string",
              "name": "isbn",
              "type": "string"
            },
            {
              "internalType": "uint8",
              "name": "availableCopies",
              "type": "uint8"
            },
            {
              "internalType": "address[]",
              "name": "previouslyTaken",
              "type": "address[]"
            }
          ],
          "internalType": "struct BookMap.Book",
          "name": "",
          "type": "tuple"
        }
      ],
      "stateMutability": "view",
      "type": "function"
    },
    {
      "inputs": [
        {
          "internalType": "uint8",
          "name": "_index",
          "type": "uint8"
        }
      ],
      "name": "getBookByIndex",
      "outputs": [
        {
          "components": [
            {
              "internalType": "string",
              "name": "isbn",
              "type": "string"
            },
            {
              "internalType": "uint8",
              "name": "availableCopies",
              "type": "uint8"
            },
            {
              "internalType": "address[]",
              "name": "previouslyTaken",
              "type": "address[]"
            }
          ],
          "internalType": "struct BookMap.Book",
          "name": "",
          "type": "tuple"
        }
      ],
      "stateMutability": "view",
      "type": "function"
    },
    {
      "inputs": [],
      "name": "getBooksCount",
      "outputs": [
        {
          "internalType": "uint8",
          "name": "",
          "type": "uint8"
        }
      ],
      "stateMutability": "view",
      "type": "function"
    },
    {
      "inputs": [],
      "name": "getLibraryBalance",
      "outputs": [
        {
          "internalType": "uint256",
          "name": "",
          "type": "uint256"
        }
      ],
      "stateMutability": "view",
      "type": "function"
    },
    {
      "inputs": [],
      "name": "owner",
      "outputs": [
        {
          "internalType": "address",
          "name": "",
          "type": "address"
        }
      ],
      "stateMutability": "view",
      "type": "function"
    },
    {
      "inputs": [],
      "name": "renounceOwnership",
      "outputs": [],
      "stateMutability": "nonpayable",
      "type": "function"
    },
    {
      "inputs": [],
      "name": "returnBlockLimit",
      "outputs": [
        {
          "internalType": "uint256",
          "name": "",
          "type": "uint256"
        }
      ],
      "stateMutability": "view",
      "type": "function"
    },
    {
      "inputs": [
        {
          "internalType": "bytes32",
          "name": "_id",
          "type": "bytes32"
        }
      ],
      "name": "returnBook",
      "outputs": [],
      "stateMutability": "nonpayable",
      "type": "function"
    },
    {
      "inputs": [],
      "name": "returnFine",
      "outputs": [
        {
          "internalType": "uint256",
          "name": "",
          "type": "uint256"
        }
      ],
      "stateMutability": "view",
      "type": "function"
    },
    {
      "inputs": [],
      "name": "takingFee",
      "outputs": [
        {
          "internalType": "uint256",
          "name": "",
          "type": "uint256"
        }
      ],
      "stateMutability": "view",
      "type": "function"
    },
    {
      "inputs": [
        {
          "internalType": "address",
          "name": "newOwner",
          "type": "address"
        }
      ],
      "name": "transferOwnership",
      "outputs": [],
      "stateMutability": "nonpayable",
      "type": "function"
    },
    {
      "inputs": [],
      "name": "withdraw",
      "outputs": [],
      "stateMutability": "nonpayable",
      "type": "function"
    },
    {
      "stateMutability": "payable",
      "type": "receive"
    }
  ],
  "bytecode": "0x60e06040523480156200001157600080fd5b5060405162001dd238038062001dd28339810160408190526200003491620000d0565b6200003f3362000080565b60808390526200005183600262000118565b60a05260c091909152600180546001600160a01b0319166001600160a01b039092169190911790555062000146565b600080546001600160a01b038381166001600160a01b0319831681178455604051919092169283917f8be0079c531659141344cd1fd0a4f28419497f9722a3daafe3b4186f6b6457e09190a35050565b600080600060608486031215620000e657600080fd5b83516020850151604086015191945092506001600160a01b03811681146200010d57600080fd5b809150509250925092565b60008160001904831182151516156200014157634e487b7160e01b600052601160045260246000fd5b500290565b60805160a05160c051611c24620001ae6000396000818161028901526104b9015260008181610240015281816104fb015281816105d001528181610868015261099c01526000818161012b01528181610889015281816109bd0152610aab0152611c246000f3fe60806040526004361061010d5760003560e01c8063715018a611610095578063ad1a7d0c11610064578063ad1a7d0c146102f3578063d0e30db014610313578063dfd83d2a1461031b578063f2fde38b14610342578063f87c20281461036257600080fd5b8063715018a6146102625780638c846581146102775780638da5cb5b146102ab578063a73b732c146102d357600080fd5b806329d39bb3116100dc57806329d39bb3146101ac5780632c2c18ab146101cc5780633bc5f48a146101f95780633ccfd60b1461021957806351e9ad1d1461022e57600080fd5b80630d6841fb1461011957806312065fe01461016057806312775c16146101755780632388c9741461019757600080fd5b3661011457005b600080fd5b34801561012557600080fd5b5061014d7f000000000000000000000000000000000000000000000000000000000000000081565b6040519081526020015b60405180910390f35b34801561016c57600080fd5b5061014d610377565b34801561018157600080fd5b50610195610190366004611774565b6103f8565b005b3480156101a357600080fd5b5061014d6106b2565b3480156101b857600080fd5b506101956101c736600461178d565b6106c3565b3480156101d857600080fd5b506101ec6101e7366004611869565b610bbd565b6040516101579190611a18565b34801561020557600080fd5b506101956102143660046117de565b610d71565b34801561022557600080fd5b50610195610e49565b34801561023a57600080fd5b5061014d7f000000000000000000000000000000000000000000000000000000000000000081565b34801561026e57600080fd5b50610195610f70565b34801561028357600080fd5b5061014d7f000000000000000000000000000000000000000000000000000000000000000081565b3480156102b757600080fd5b506000546040516001600160a01b039091168152602001610157565b3480156102df57600080fd5b506101ec6102ee366004611869565b610f84565b3480156102ff57600080fd5b506101ec61030e366004611774565b61102a565b610195611196565b34801561032757600080fd5b50610330611230565b60405160ff9091168152602001610157565b34801561034e57600080fd5b5061019561035d366004611722565b61123b565b34801561036e57600080fd5b5060085461014d565b6001546040516370a0823160e01b81523360048201526000916001600160a01b0316906370a082319060240160206040518083038186803b1580156103bb57600080fd5b505afa1580156103cf573d6000803e3d6000fd5b505050506040513d601f19601f820116820180604052508101906103f39190611850565b905090565b600081815260056020526040902054819060ff166104315760405162461bcd60e51b8152600401610428906119e1565b60405180910390fd5b60008281526007602090815260408083203384529091529020546104975760405162461bcd60e51b815260206004820152601f60248201527f5573657220686173206e6f7420626f72726f776564207468697320626f6f6b006044820152606401610428565b600082815260076020908152604080832033845290915290205443906104de907f000000000000000000000000000000000000000000000000000000000000000090611aff565b106105ce5760015460405163a9059cbb60e01b81523360048201527f000000000000000000000000000000000000000000000000000000000000000060248201526000916001600160a01b03169063a9059cbb90604401602060405180830381600087803b15801561054f57600080fd5b505af1158015610563573d6000803e3d6000fd5b505050506040513d601f19601f820116820180604052508101906105879190611752565b9050806105c85760405162461bcd60e51b815260206004820152600f60248201526e1d1c985b9cd9995c8819985a5b1959608a1b6044820152606401610428565b50610606565b7f0000000000000000000000000000000000000000000000000000000000000000600660008282546106009190611aff565b90915550505b6000828152600360205260408120600181018054919260ff9092169161062b83611b8c565b825460ff9182166101009390930a928302919092021990911617905550600083815260076020908152604080832033845290915281205561066b836112c9565b82336001600160a01b03167f0dfd2a8ea29b6e9cbb3642c9c0204235fbcc20b54fd442b3a77ff1c33a8b2fe9836040516106a59190611a2b565b60405180910390a3505050565b60006106bc61134b565b5060065490565b600086815260056020526040902054869060ff166106f35760405162461bcd60e51b8152600401610428906119e1565b6000878152600360205260409020600181015460ff166107615760405162461bcd60e51b815260206004820152602360248201527f426f6f6b206973206e6f742063757272656e746c79206e6f7420617661696c61604482015262626c6560e81b6064820152608401610428565b6000888152600760209081526040808320338452909152902054156107de5760405162461bcd60e51b815260206004820152602d60248201527f557365722068617320616c726561647920626f72726f776564206120636f707960448201526c206f66207468697320626f6f6b60981b6064820152608401610428565b60015460405163d505accf60e01b8152336004820152306024820152604481018990526064810188905260ff8716608482015260a4810186905260c481018590526001600160a01b039091169063d505accf9060e401600060405180830381600087803b15801561084e57600080fd5b505af1158015610862573d6000803e3d6000fd5b505050507f00000000000000000000000000000000000000000000000000000000000000007f00000000000000000000000000000000000000000000000000000000000000006108b29190611aff565b600154604051636eb1769f60e11b81523360048201523060248201526001600160a01b039091169063dd62ed3e9060440160206040518083038186803b1580156108fb57600080fd5b505afa15801561090f573d6000803e3d6000fd5b505050506040513d601f19601f820116820180604052508101906109339190611850565b10156109815760405162461bcd60e51b815260206004820152601760248201527f546f6b656e20616c6c6f77616e636520746f6f206c6f770000000000000000006044820152606401610428565b6001546000906001600160a01b03166323b872dd33306109e17f00000000000000000000000000000000000000000000000000000000000000007f0000000000000000000000000000000000000000000000000000000000000000611aff565b6040516001600160e01b031960e086901b1681526001600160a01b0393841660048201529290911660248301526044820152606401602060405180830381600087803b158015610a3057600080fd5b505af1158015610a44573d6000803e3d6000fd5b505050506040513d601f19601f82011682018060405250810190610a689190611752565b905080610aa95760405162461bcd60e51b815260206004820152600f60248201526e1d1c985b9cd9995c8819985a5b1959608a1b6044820152606401610428565b7f000000000000000000000000000000000000000000000000000000000000000060066000828254610adb9190611aff565b909155505060028201805460018181018355600092835260209092200180546001600160a01b03191633179055610b13904390611aff565b60008a8152600760209081526040808320338452909152812091909155600183018054909190610b459060ff16611b3a565b91906101000a81548160ff021916908360ff160217905560ff1660001415610b7057610b70896113a5565b88336001600160a01b03167f322b1260600e7530f299d5269bb3e32b61f9169a1c61fa98e92e28dffd604b9f84604051610baa9190611a2b565b60405180910390a3505050505050505050565b604080516060808201835280825260006020830152918101919091528160ff16610be660025490565b60ff16118015610c0157506000610bfc60025490565b60ff16115b610c425760405162461bcd60e51b8152602060048201526012602482015271496e646578206f7574206f742072616e676560701b6044820152606401610428565b610c61610c5060028461149b565b600090815260036020526040902090565b604051806060016040529081600082018054610c7c90611b57565b80601f0160208091040260200160405190810160405280929190818152602001828054610ca890611b57565b8015610cf55780601f10610cca57610100808354040283529160200191610cf5565b820191906000526020600020905b815481529060010190602001808311610cd857829003601f168201915b5050509183525050600182015460ff166020808301919091526002830180546040805182850281018501825282815294019392830182828015610d6157602002820191906000526020600020905b81546001600160a01b03168152600190910190602001808311610d43575b5050505050815250509050919050565b610d7961134b565b60008282604051602001610d8e9291906119b2565b60408051808303601f19018152828252805160209182012060608085018452808552600083860152848401528251601f87018390048302810183019093528583529350859085908190840183828082843760009201919091525050509082525060016020820152610e01600283836114c8565b610e0a826112c9565b7ff4c2bab87497352daa93c241bda5027554baf392aba54a0ece850466cc56db0b8282604051610e3b929190611991565b60405180910390a150505050565b610e5161134b565b600060065411610ea35760405162461bcd60e51b815260206004820152601760248201527f4e6f206665657320746f2062652077697468647261776e0000000000000000006044820152606401610428565b600654604051600091339181156108fc02919084818181858888f19350505050905080610f005760405162461bcd60e51b815260206004820152600b60248201526a1cd95b990819985a5b195960aa1b6044820152606401610428565b600154600654604051632770a7eb60e21b815230600482015260248101919091526001600160a01b0390911690639dc29fac90604401600060405180830381600087803b158015610f5057600080fd5b505af1158015610f64573d6000803e3d6000fd5b50506000600655505050565b610f7861134b565b610f8260006115ce565b565b6040805160608082018352808252600060208301529181019190915260085460ff8316108015610fb5575060085415155b610ff65760405162461bcd60e51b8152602060048201526012602482015271496e646578206f7574206f742072616e676560701b6044820152606401610428565b610c6160088360ff168154811061100f5761100f611bd8565b906000526020600020015460026112b490919063ffffffff16565b60408051606080820183528082526000602083015291810191909152600082815260056020526040902054829060ff166110765760405162461bcd60e51b8152600401610428906119e1565b600083815260036020526040902060405180606001604052908160008201805461109f90611b57565b80601f01602080910402602001604051908101604052809291908181526020018280546110cb90611b57565b80156111185780601f106110ed57610100808354040283529160200191611118565b820191906000526020600020905b8154815290600101906020018083116110fb57829003601f168201915b5050509183525050600182015460ff16602080830191909152600283018054604080518285028101850182528281529401939283018282801561118457602002820191906000526020600020905b81546001600160a01b03168152600190910190602001808311611166575b50505050508152505091505b50919050565b6001546040516340c10f1960e01b81523360048201523460248201526001600160a01b03909116906340c10f1990604401600060405180830381600087803b1580156111e157600080fd5b505af11580156111f5573d6000803e3d6000fd5b50506040513481523392507fe1fffcc4923d04b559f4d29a8bfc6cda04eb5b0d3c460751c2402c5c5cc9109c915060200160405180910390a2565b60006103f360025490565b61124361134b565b6001600160a01b0381166112a85760405162461bcd60e51b815260206004820152602660248201527f4f776e61626c653a206e6577206f776e657220697320746865207a65726f206160448201526564647265737360d01b6064820152608401610428565b6112b1816115ce565b50565b60009081526001919091016020526040902090565b6000818152600a602052604090205460ff166112b1576000818152600a602090815260408083208054600160ff199182168117909255600880546009909552928520805490911660ff90941693909317909255805491820181559091527ff3f7a9fe364faab93b216da50a3214154f22a0a2b415b23a84c8169e8b636ee30155565b6000546001600160a01b03163314610f825760405162461bcd60e51b815260206004820181905260248201527f4f776e61626c653a2063616c6c6572206973206e6f7420746865206f776e65726044820152606401610428565b60008181526009602052604081205460085460ff90911691906113ca90600190611b17565b9050600060088260ff16815481106113e4576113e4611bd8565b9060005260206000200154905060088260ff168154811061140757611407611bd8565b906000526020600020015460088460ff168154811061142857611428611bd8565b600091825260209091200155600880548061144557611445611bc2565b600082815260208082208301600019908101839055909201909255918152600982526040808220805460ff90961660ff19968716179055948152848120805485169055600a909152929092208054909116905550565b6000826000018260ff16815481106114b5576114b5611bd8565b9060005260206000200154905092915050565b600082815260038401602052604090205460ff161561152057600082815260018085016020526040822001805460ff169161150283611b8c565b91906101000a81548160ff021916908360ff16021790555050505050565b60008281526003840160209081526040808320805460ff191660019081179091558601825290912082518051849361155c92849291019061161e565b5060208281015160018301805460ff191660ff9092169190911790556040830151805161158f92600285019201906116a2565b50508354600084815260028601602090815260408220805460ff191660ff90941693909317909255855460018101875595815220909301919091555050565b600080546001600160a01b038381166001600160a01b0319831681178455604051919092169283917f8be0079c531659141344cd1fd0a4f28419497f9722a3daafe3b4186f6b6457e09190a35050565b82805461162a90611b57565b90600052602060002090601f01602090048101928261164c5760008555611692565b82601f1061166557805160ff1916838001178555611692565b82800160010185558215611692579182015b82811115611692578251825591602001919060010190611677565b5061169e9291506116f7565b5090565b828054828255906000526020600020908101928215611692579160200282015b8281111561169257825182546001600160a01b0319166001600160a01b039091161782556020909201916001909101906116c2565b5b8082111561169e57600081556001016116f8565b803560ff8116811461171d57600080fd5b919050565b60006020828403121561173457600080fd5b81356001600160a01b038116811461174b57600080fd5b9392505050565b60006020828403121561176457600080fd5b8151801515811461174b57600080fd5b60006020828403121561178657600080fd5b5035919050565b60008060008060008060c087890312156117a657600080fd5b8635955060208701359450604087013593506117c46060880161170c565b92506080870135915060a087013590509295509295509295565b600080602083850312156117f157600080fd5b823567ffffffffffffffff8082111561180957600080fd5b818501915085601f83011261181d57600080fd5b81358181111561182c57600080fd5b86602082850101111561183e57600080fd5b60209290920196919550909350505050565b60006020828403121561186257600080fd5b5051919050565b60006020828403121561187b57600080fd5b61174b8261170c565b600081518084526020808501945080840160005b838110156118bd5781516001600160a01b031687529582019590820190600101611898565b509495945050505050565b6000815480845260208085019450836000528060002060005b838110156118bd5781546001600160a01b0316875295820195600191820191016118e1565b6000815160608452805180606086015260005b818110156119365760208184018101516080888401015201611919565b81811115611948576000608083880101525b50601f19601f8201168501915050602083015161196a602086018260ff169052565b50604083015160808583030160408601526119886080830182611884565b95945050505050565b8281526040602082015260006119aa6040830184611906565b949350505050565b60208152816020820152818360408301376000818301604090810191909152601f909201601f19160101919050565b6020808252601a908201527f5468697320626f6f6b206973206e6f7420617661696c61626c65000000000000604082015260600190565b60208152600061174b6020830184611906565b600060208083526060818401526000845481600182811c915080831680611a5357607f831692505b858310811415611a7157634e487b7160e01b85526022600452602485fd5b6080880183905260a08801818015611a905760018114611aa157611acc565b60ff19861682528782019650611acc565b60008b81526020902060005b86811015611ac657815484820152908501908901611aad565b83019750505b50505087015460ff16604087018190529350611ae6915050565b838103601f1901606085015261198881600287016118c8565b60008219821115611b1257611b12611bac565b500190565b600060ff821660ff841680821015611b3157611b31611bac565b90039392505050565b600060ff821680611b4d57611b4d611bac565b6000190192915050565b600181811c90821680611b6b57607f821691505b6020821081141561119057634e487b7160e01b600052602260045260246000fd5b600060ff821660ff811415611ba357611ba3611bac565b60010192915050565b634e487b7160e01b600052601160045260246000fd5b634e487b7160e01b600052603160045260246000fd5b634e487b7160e01b600052603260045260246000fdfea26469706673582212202f2fed353a8b2980aef8c2a7b3aadadcd989eb8d6ca521cf423c3e7033c0318a64736f6c63430008070033",
  "linkReferences": {},
  "deployedLinkReferences": {}
}