{
  "_format": "hh-sol-artifact-1",
  "contractName": "Library",
  "sourceName": "contracts/library.sol",
  "abi": [
    {
      "inputs": [
        {
          "internalType": "uint256",
          "name": "_fee",
          "type": "uint256"
        },
        {
          "internalType": "uint256",
          "name": "_limit",
          "type": "uint256"
        }
      ],
      "stateMutability": "nonpayable",
      "type": "constructor"
    },
    {
      "anonymous": false,
      "inputs": [
        {
          "indexed": true,
          "internalType": "address",
          "name": "previousOwner",
          "type": "address"
        },
        {
          "indexed": true,
          "internalType": "address",
          "name": "newOwner",
          "type": "address"
        }
      ],
      "name": "OwnershipTransferred",
      "type": "event"
    },
    {
      "anonymous": false,
      "inputs": [
        {
          "indexed": false,
          "internalType": "string",
          "name": "isbn",
          "type": "string"
        },
        {
          "components": [
            {
              "internalType": "uint8",
              "name": "availableCopies",
              "type": "uint8"
            },
            {
              "internalType": "address[]",
              "name": "previouslyTaken",
              "type": "address[]"
            }
          ],
          "indexed": false,
          "internalType": "struct BookMap.Book",
          "name": "book",
          "type": "tuple"
        }
      ],
      "name": "addBookEvent",
      "type": "event"
    },
    {
      "anonymous": false,
      "inputs": [
        {
          "indexed": true,
          "internalType": "address",
          "name": "takenBy",
          "type": "address"
        },
        {
          "indexed": false,
          "internalType": "string",
          "name": "isbn",
          "type": "string"
        },
        {
          "components": [
            {
              "internalType": "uint8",
              "name": "availableCopies",
              "type": "uint8"
            },
            {
              "internalType": "address[]",
              "name": "previouslyTaken",
              "type": "address[]"
            }
          ],
          "indexed": false,
          "internalType": "struct BookMap.Book",
          "name": "book",
          "type": "tuple"
        }
      ],
      "name": "borrowBookEvent",
      "type": "event"
    },
    {
      "anonymous": false,
      "inputs": [
        {
          "indexed": true,
          "internalType": "address",
          "name": "returnedBy",
          "type": "address"
        },
        {
          "indexed": false,
          "internalType": "string",
          "name": "isbn",
          "type": "string"
        },
        {
          "components": [
            {
              "internalType": "uint8",
              "name": "availableCopies",
              "type": "uint8"
            },
            {
              "internalType": "address[]",
              "name": "previouslyTaken",
              "type": "address[]"
            }
          ],
          "indexed": false,
          "internalType": "struct BookMap.Book",
          "name": "book",
          "type": "tuple"
        }
      ],
      "name": "returnBookEvent",
      "type": "event"
    },
    {
      "inputs": [
        {
          "internalType": "string",
          "name": "_isbn",
          "type": "string"
        }
      ],
      "name": "addBook",
      "outputs": [],
      "stateMutability": "nonpayable",
      "type": "function"
    },
    {
      "inputs": [],
      "name": "getAvailableBooks",
      "outputs": [
        {
          "internalType": "string[]",
          "name": "",
          "type": "string[]"
        }
      ],
      "stateMutability": "view",
      "type": "function"
    },
    {
      "inputs": [],
      "name": "getBalance",
      "outputs": [
        {
          "internalType": "uint256",
          "name": "",
          "type": "uint256"
        }
      ],
      "stateMutability": "view",
      "type": "function"
    },
    {
      "inputs": [
        {
          "internalType": "string",
          "name": "_isbn",
          "type": "string"
        }
      ],
      "name": "listUsersWhoTookBook",
      "outputs": [
        {
          "internalType": "address[]",
          "name": "",
          "type": "address[]"
        }
      ],
      "stateMutability": "view",
      "type": "function"
    },
    {
      "inputs": [],
      "name": "owner",
      "outputs": [
        {
          "internalType": "address",
          "name": "",
          "type": "address"
        }
      ],
      "stateMutability": "view",
      "type": "function"
    },
    {
      "inputs": [],
      "name": "renounceOwnership",
      "outputs": [],
      "stateMutability": "nonpayable",
      "type": "function"
    },
    {
      "inputs": [],
      "name": "returnBlockLimit",
      "outputs": [
        {
          "internalType": "uint256",
          "name": "",
          "type": "uint256"
        }
      ],
      "stateMutability": "view",
      "type": "function"
    },
    {
      "inputs": [
        {
          "internalType": "string",
          "name": "_isbn",
          "type": "string"
        }
      ],
      "name": "returnBook",
      "outputs": [],
      "stateMutability": "payable",
      "type": "function"
    },
    {
      "inputs": [],
      "name": "returnFine",
      "outputs": [
        {
          "internalType": "uint256",
          "name": "",
          "type": "uint256"
        }
      ],
      "stateMutability": "view",
      "type": "function"
    },
    {
      "inputs": [
        {
          "internalType": "string",
          "name": "_isbn",
          "type": "string"
        }
      ],
      "name": "takeBook",
      "outputs": [],
      "stateMutability": "payable",
      "type": "function"
    },
    {
      "inputs": [],
      "name": "takingFee",
      "outputs": [
        {
          "internalType": "uint256",
          "name": "",
          "type": "uint256"
        }
      ],
      "stateMutability": "view",
      "type": "function"
    },
    {
      "inputs": [
        {
          "internalType": "address",
          "name": "newOwner",
          "type": "address"
        }
      ],
      "name": "transferOwnership",
      "outputs": [],
      "stateMutability": "nonpayable",
      "type": "function"
    },
    {
      "inputs": [],
      "name": "withdraw",
      "outputs": [],
      "stateMutability": "nonpayable",
      "type": "function"
    },
    {
      "stateMutability": "payable",
      "type": "receive"
    }
  ],
  "bytecode": "0x60e06040523480156200001157600080fd5b50604051620018c6380380620018c68339810160408190526200003491620000ae565b6200003f336200005e565b608082905262000051826002620000d3565b60a05260c0525062000101565b600080546001600160a01b038381166001600160a01b0319831681178455604051919092169283917f8be0079c531659141344cd1fd0a4f28419497f9722a3daafe3b4186f6b6457e09190a35050565b60008060408385031215620000c257600080fd5b505080516020909101519092909150565b6000816000190483118215151615620000fc57634e487b7160e01b600052601160045260246000fd5b500290565b60805160a05160c0516117656200016160003960008181610213015261037a0152600081816101b7015281816103d901528181610449015261047a01526000818160e4015281816108ff0152818161096f01526109a001526117656000f3fe6080604052600436106100c65760003560e01c806351e9ad1d1161007f5780638c846581116100595780638c846581146102015780638da5cb5b14610235578063d6c084d91461025d578063f2fde38b1461027f57600080fd5b806351e9ad1d146101a5578063715018a6146101d957806376c513b5146101ee57600080fd5b80630d6841fb146100d257806312065fe0146101195780631ef49a8c1461012e5780632965fe61146101435780633bc5f48a146101705780633ccfd60b1461019057600080fd5b366100cd57005b600080fd5b3480156100de57600080fd5b506101067f000000000000000000000000000000000000000000000000000000000000000081565b6040519081526020015b60405180910390f35b34801561012557600080fd5b5061010661029f565b61014161013c36600461130b565b6102ae565b005b34801561014f57600080fd5b5061016361015e36600461130b565b6105df565b60405161011091906113d2565b34801561017c57600080fd5b5061014161018b36600461130b565b610699565b34801561019c57600080fd5b5061014161070d565b3480156101b157600080fd5b506101067f000000000000000000000000000000000000000000000000000000000000000081565b3480156101e557600080fd5b506101416107a4565b6101416101fc36600461130b565b6107b8565b34801561020d57600080fd5b506101067f000000000000000000000000000000000000000000000000000000000000000081565b34801561024157600080fd5b506000546040516001600160a01b039091168152602001610110565b34801561026957600080fd5b50610272610ada565b604051610110919061141f565b34801561028b57600080fd5b5061014161029a3660046112db565b610bb3565b60006102a9610c29565b504790565b8181600160030182826040516102c59291906113a6565b9081526040519081900360200190205460ff166102fd5760405162461bcd60e51b81526004016102f4906115c0565b60405180910390fd5b6005848460405161030f9291906113a6565b908152604080516020928190038301902033600090815292529020546103775760405162461bcd60e51b815260206004820152601f60248201527f5573657220686173206e6f7420626f72726f776564207468697320626f6f6b0060448201526064016102f4565b437f0000000000000000000000000000000000000000000000000000000000000000600586866040516103ab9291906113a6565b908152604080516020928190038301902033600090815292529020546103d191906115f7565b10156104dc577f00000000000000000000000000000000000000000000000000000000000000003410156104475760405162461bcd60e51b815260206004820152601f60248201527f4e6f7420656e6f75676820657468657220746f207061792070656e616c74790060448201526064016102f4565b7f00000000000000000000000000000000000000000000000000000000000000003411156104d7576000336108fc61049f7f00000000000000000000000000000000000000000000000000000000000000003461160f565b6040518115909202916000818181858888f193505050509050806104d55760405162461bcd60e51b81526004016102f49061159b565b505b610520565b34156105205760405160009033903480156108fc029184818181858888f1935050505090508061051e5760405162461bcd60e51b81526004016102f49061159b565b505b600061052e60018686610c83565b805490915060ff16816000610542836116cd565b91906101000a81548160ff021916908360ff160217905550506005858560405161056d9291906113a6565b908152604080516020928190038301902033600090815292528120556105938585610cb0565b336001600160a01b03167fbd2bd22fba2637e4598c4a6b7593daeed0aacf8409cdcc647aff635f33e6f8a98686846040516105d093929190611518565b60405180910390a25050505050565b60608282600160030182826040516105f89291906113a6565b9081526040519081900360200190205460ff166106275760405162461bcd60e51b81526004016102f4906115c0565b61063360018686610c83565b60010180548060200260200160405190810160405280929190818152602001828054801561068a57602002820191906000526020600020905b81546001600160a01b0316815260019091019060200180831161066c575b50505050509250505092915050565b6106a1610c29565b604080518082019091526060602082015260018082526106c390848484610d88565b6106cd8383610cb0565b7f6625a8c781550c435973ba5fec48ce071593df87e04c9875346e3b6065237bff83838360405161070093929190611499565b60405180910390a1505050565b610715610c29565b600047116107655760405162461bcd60e51b815260206004820152601760248201527f4e6f206665657320746f2062652077697468647261776e00000000000000000060448201526064016102f4565b60405160009033904780156108fc029184818181858888f193505050509050806107a15760405162461bcd60e51b81526004016102f49061159b565b50565b6107ac610c29565b6107b66000610eef565b565b8181600160030182826040516107cf9291906113a6565b9081526040519081900360200190205460ff166107fe5760405162461bcd60e51b81526004016102f4906115c0565b600061080c60018686610c83565b805490915060ff1661086c5760405162461bcd60e51b815260206004820152602360248201527f426f6f6b206973206e6f742063757272656e746c79206e6f7420617661696c61604482015262626c6560e81b60648201526084016102f4565b6005858560405161087e9291906113a6565b90815260408051602092819003830190203360009081529252902054156108fd5760405162461bcd60e51b815260206004820152602d60248201527f557365722068617320616c726561647920626f72726f776564206120636f707960448201526c206f66207468697320626f6f6b60981b60648201526084016102f4565b7f000000000000000000000000000000000000000000000000000000000000000034101561096d5760405162461bcd60e51b815260206004820152601f60248201527f4e6f7420656e6f75676820657468657220746f20626f72726f7720626f6f6b0060448201526064016102f4565b7f00000000000000000000000000000000000000000000000000000000000000003411156109fd576000336108fc6109c57f00000000000000000000000000000000000000000000000000000000000000003461160f565b6040518115909202916000818181858888f193505050509050806109fb5760405162461bcd60e51b81526004016102f49061159b565b505b600180820180548083018255600091825260209091200180546001600160a01b03191633179055610a2f9043906115f7565b60058686604051610a419291906113a6565b908152604080516020928190038301902033600090815292528120919091558154829190610a719060ff16611675565b91906101000a81548160ff021916908360ff160217905560ff1660001415610a9d57610a9d8585610f3f565b336001600160a01b03167ff76bf725b752b8e25df92ce876d3fa99bfebc2b7ad143b5964df545c5f934d808686846040516105d093929190611518565b60606006805480602002602001604051908101604052809291908181526020016000905b82821015610baa578382906000526020600020018054610b1d90611692565b80601f0160208091040260200160405190810160405280929190818152602001828054610b4990611692565b8015610b965780601f10610b6b57610100808354040283529160200191610b96565b820191906000526020600020905b815481529060010190602001808311610b7957829003601f168201915b505050505081526020019060010190610afe565b50505050905090565b610bbb610c29565b6001600160a01b038116610c205760405162461bcd60e51b815260206004820152602660248201527f4f776e61626c653a206e6577206f776e657220697320746865207a65726f206160448201526564647265737360d01b60648201526084016102f4565b6107a181610eef565b6000546001600160a01b031633146107b65760405162461bcd60e51b815260206004820181905260248201527f4f776e61626c653a2063616c6c6572206973206e6f7420746865206f776e657260448201526064016102f4565b6000836001018383604051610c999291906113a6565b908152602001604051809103902090509392505050565b60088282604051610cc29291906113a6565b9081526040519081900360200190205460ff16610d8457600160088383604051610ced9291906113a6565b908152604051908190036020018120805492151560ff199093169290921790915560065490600790610d2290859085906113a6565b908152604051908190036020019020805460ff9290921660ff1990921691909117905560068054600181018255600091909152610d82907ff652222313e28459528d920b65115c16c04f3efc82aaedc97be59f3f377c0d3f01838361113c565b505b5050565b836003018383604051610d9c9291906113a6565b9081526040519081900360200190205460ff1615610e0657836001018383604051610dc89291906113a6565b908152604051908190036020019020805460ff16906000610de8836116cd565b91906101000a81548160ff021916908360ff16021790555050610ee9565b6001846003018484604051610e1c9291906113a6565b908152604051908190036020018120805492151560ff199093169290921790915581906001860190610e5190869086906113a6565b908152604051602091819003820190208251815460ff191660ff9091161781558282015180519192610e8b926001850192909101906111c0565b505084546040519091506002860190610ea790869086906113a6565b90815260405160209181900382019020805460ff191660ff93909316929092179091558454600181018655600086815291909120610ee79101848461113c565b505b50505050565b600080546001600160a01b038381166001600160a01b0319831681178455604051919092169283917f8be0079c531659141344cd1fd0a4f28419497f9722a3daafe3b4186f6b6457e09190a35050565b600060078383604051610f539291906113a6565b9081526040519081900360200190205460065460ff9091169150600090610f7c90600190611626565b9050600060068260ff1681548110610f9657610f96611719565b906000526020600020018054610fab90611692565b80601f0160208091040260200160405190810160405280929190818152602001828054610fd790611692565b80156110245780601f10610ff957610100808354040283529160200191611024565b820191906000526020600020905b81548152906001019060200180831161100757829003601f168201915b5050505050905060068260ff168154811061104157611041611719565b9060005260206000200160068460ff168154811061106157611061611719565b9060005260206000200190805461107790611692565b611082929190611215565b50600680548061109457611094611703565b6001900381819060005260206000200160006110b09190611290565b9055826007826040516110c391906113b6565b908152604051908190036020018120805460ff9390931660ff19909316929092179091556007906110f790879087906113a6565b908152604051908190036020018120805460ff1916905560089061111e90879087906113a6565b908152604051908190036020019020805460ff191690555050505050565b82805461114890611692565b90600052602060002090601f01602090048101928261116a57600085556111b0565b82601f106111835782800160ff198235161785556111b0565b828001600101855582156111b0579182015b828111156111b0578235825591602001919060010190611195565b506111bc9291506112c6565b5090565b8280548282559060005260206000209081019282156111b0579160200282015b828111156111b057825182546001600160a01b0319166001600160a01b039091161782556020909201916001909101906111e0565b82805461122190611692565b90600052602060002090601f01602090048101928261124357600085556111b0565b82601f1061125457805485556111b0565b828001600101855582156111b057600052602060002091601f016020900482015b828111156111b0578254825591600101919060010190611275565b50805461129c90611692565b6000825580601f106112ac575050565b601f0160209004906000526020600020908101906107a191905b5b808211156111bc57600081556001016112c7565b6000602082840312156112ed57600080fd5b81356001600160a01b038116811461130457600080fd5b9392505050565b6000806020838503121561131e57600080fd5b823567ffffffffffffffff8082111561133657600080fd5b818501915085601f83011261134a57600080fd5b81358181111561135957600080fd5b86602082850101111561136b57600080fd5b60209290920196919550909350505050565b81835281816020850137506000828201602090810191909152601f909101601f19169091010190565b8183823760009101908152919050565b600082516113c8818460208701611649565b9190910192915050565b6020808252825182820181905260009190848201906040850190845b818110156114135783516001600160a01b0316835292840192918401916001016113ee565b50909695505050505050565b6000602080830181845280855180835260408601915060408160051b870101925083870160005b8281101561148c57878503603f190184528151805180875261146d818989018a8501611649565b601f01601f191695909501860194509285019290850190600101611446565b5092979650505050505050565b6040815260006114ad60408301858761137d565b6020838203818501526040820160ff8651168352818601516040838501528181518084526060860191508483019550600093505b8084101561150a5785516001600160a01b031682529484019460019390930192908401906114e1565b509998505050505050505050565b60408152600061152c60408301858761137d565b6020838203818501526040820160ff8654168352600180870160408486015282815480855260608701915082600052856000209650600094505b8085101561158c5786546001600160a01b03168252958301959383019390850190611566565b509a9950505050505050505050565b6020808252600b908201526a1cd95b990819985a5b195960aa1b604082015260600190565b6020808252601a908201527f5468697320626f6f6b206973206e6f7420617661696c61626c65000000000000604082015260600190565b6000821982111561160a5761160a6116ed565b500190565b600082821015611621576116216116ed565b500390565b600060ff821660ff841680821015611640576116406116ed565b90039392505050565b60005b8381101561166457818101518382015260200161164c565b83811115610ee95750506000910152565b600060ff821680611688576116886116ed565b6000190192915050565b600181811c908216806116a657607f821691505b602082108114156116c757634e487b7160e01b600052602260045260246000fd5b50919050565b600060ff821660ff8114156116e4576116e46116ed565b60010192915050565b634e487b7160e01b600052601160045260246000fd5b634e487b7160e01b600052603160045260246000fd5b634e487b7160e01b600052603260045260246000fdfea2646970667358221220c9876aa3fa3f254a5699facf5839b15c1e4d19ab165697f98baff52ea844476f64736f6c63430008070033",
  "linkReferences": {},
  "deployedLinkReferences": {}
}