{
  "_format": "hh-sol-artifact-1",
  "contractName": "Library",
  "sourceName": "contracts/library.sol",
  "abi": [
    {
      "inputs": [
        {
          "internalType": "uint256",
          "name": "_fee",
          "type": "uint256"
        },
        {
          "internalType": "uint256",
          "name": "_limit",
          "type": "uint256"
        }
      ],
      "stateMutability": "nonpayable",
      "type": "constructor"
    },
    {
      "anonymous": false,
      "inputs": [
        {
          "indexed": true,
          "internalType": "address",
          "name": "previousOwner",
          "type": "address"
        },
        {
          "indexed": true,
          "internalType": "address",
          "name": "newOwner",
          "type": "address"
        }
      ],
      "name": "OwnershipTransferred",
      "type": "event"
    },
    {
      "anonymous": false,
      "inputs": [
        {
          "indexed": false,
          "internalType": "bytes32",
          "name": "id",
          "type": "bytes32"
        },
        {
          "components": [
            {
              "internalType": "string",
              "name": "isbn",
              "type": "string"
            },
            {
              "internalType": "uint8",
              "name": "availableCopies",
              "type": "uint8"
            },
            {
              "internalType": "address[]",
              "name": "previouslyTaken",
              "type": "address[]"
            }
          ],
          "indexed": false,
          "internalType": "struct BookMap.Book",
          "name": "book",
          "type": "tuple"
        }
      ],
      "name": "addBookEvent",
      "type": "event"
    },
    {
      "anonymous": false,
      "inputs": [
        {
          "indexed": true,
          "internalType": "address",
          "name": "takenBy",
          "type": "address"
        },
        {
          "indexed": true,
          "internalType": "bytes32",
          "name": "id",
          "type": "bytes32"
        },
        {
          "components": [
            {
              "internalType": "string",
              "name": "isbn",
              "type": "string"
            },
            {
              "internalType": "uint8",
              "name": "availableCopies",
              "type": "uint8"
            },
            {
              "internalType": "address[]",
              "name": "previouslyTaken",
              "type": "address[]"
            }
          ],
          "indexed": false,
          "internalType": "struct BookMap.Book",
          "name": "book",
          "type": "tuple"
        }
      ],
      "name": "borrowBookEvent",
      "type": "event"
    },
    {
      "anonymous": false,
      "inputs": [
        {
          "indexed": true,
          "internalType": "address",
          "name": "returnedBy",
          "type": "address"
        },
        {
          "indexed": true,
          "internalType": "bytes32",
          "name": "id",
          "type": "bytes32"
        },
        {
          "components": [
            {
              "internalType": "string",
              "name": "isbn",
              "type": "string"
            },
            {
              "internalType": "uint8",
              "name": "availableCopies",
              "type": "uint8"
            },
            {
              "internalType": "address[]",
              "name": "previouslyTaken",
              "type": "address[]"
            }
          ],
          "indexed": false,
          "internalType": "struct BookMap.Book",
          "name": "book",
          "type": "tuple"
        }
      ],
      "name": "returnBookEvent",
      "type": "event"
    },
    {
      "inputs": [
        {
          "internalType": "string",
          "name": "_isbn",
          "type": "string"
        }
      ],
      "name": "addBook",
      "outputs": [],
      "stateMutability": "nonpayable",
      "type": "function"
    },
    {
      "inputs": [
        {
          "internalType": "uint8",
          "name": "_index",
          "type": "uint8"
        }
      ],
      "name": "getAvailableBook",
      "outputs": [
        {
          "components": [
            {
              "internalType": "string",
              "name": "isbn",
              "type": "string"
            },
            {
              "internalType": "uint8",
              "name": "availableCopies",
              "type": "uint8"
            },
            {
              "internalType": "address[]",
              "name": "previouslyTaken",
              "type": "address[]"
            }
          ],
          "internalType": "struct BookMap.Book",
          "name": "",
          "type": "tuple"
        }
      ],
      "stateMutability": "view",
      "type": "function"
    },
    {
      "inputs": [],
      "name": "getAvailableBooksLength",
      "outputs": [
        {
          "internalType": "uint256",
          "name": "",
          "type": "uint256"
        }
      ],
      "stateMutability": "view",
      "type": "function"
    },
    {
      "inputs": [],
      "name": "getBalance",
      "outputs": [
        {
          "internalType": "uint256",
          "name": "",
          "type": "uint256"
        }
      ],
      "stateMutability": "view",
      "type": "function"
    },
    {
      "inputs": [
        {
          "internalType": "bytes32",
          "name": "_id",
          "type": "bytes32"
        }
      ],
      "name": "getBook",
      "outputs": [
        {
          "components": [
            {
              "internalType": "string",
              "name": "isbn",
              "type": "string"
            },
            {
              "internalType": "uint8",
              "name": "availableCopies",
              "type": "uint8"
            },
            {
              "internalType": "address[]",
              "name": "previouslyTaken",
              "type": "address[]"
            }
          ],
          "internalType": "struct BookMap.Book",
          "name": "",
          "type": "tuple"
        }
      ],
      "stateMutability": "view",
      "type": "function"
    },
    {
      "inputs": [
        {
          "internalType": "uint8",
          "name": "_index",
          "type": "uint8"
        }
      ],
      "name": "getBookByIndex",
      "outputs": [
        {
          "components": [
            {
              "internalType": "string",
              "name": "isbn",
              "type": "string"
            },
            {
              "internalType": "uint8",
              "name": "availableCopies",
              "type": "uint8"
            },
            {
              "internalType": "address[]",
              "name": "previouslyTaken",
              "type": "address[]"
            }
          ],
          "internalType": "struct BookMap.Book",
          "name": "",
          "type": "tuple"
        }
      ],
      "stateMutability": "view",
      "type": "function"
    },
    {
      "inputs": [],
      "name": "owner",
      "outputs": [
        {
          "internalType": "address",
          "name": "",
          "type": "address"
        }
      ],
      "stateMutability": "view",
      "type": "function"
    },
    {
      "inputs": [],
      "name": "renounceOwnership",
      "outputs": [],
      "stateMutability": "nonpayable",
      "type": "function"
    },
    {
      "inputs": [],
      "name": "returnBlockLimit",
      "outputs": [
        {
          "internalType": "uint256",
          "name": "",
          "type": "uint256"
        }
      ],
      "stateMutability": "view",
      "type": "function"
    },
    {
      "inputs": [
        {
          "internalType": "bytes32",
          "name": "_id",
          "type": "bytes32"
        }
      ],
      "name": "returnBook",
      "outputs": [],
      "stateMutability": "payable",
      "type": "function"
    },
    {
      "inputs": [],
      "name": "returnFine",
      "outputs": [
        {
          "internalType": "uint256",
          "name": "",
          "type": "uint256"
        }
      ],
      "stateMutability": "view",
      "type": "function"
    },
    {
      "inputs": [
        {
          "internalType": "bytes32",
          "name": "_id",
          "type": "bytes32"
        }
      ],
      "name": "takeBook",
      "outputs": [],
      "stateMutability": "payable",
      "type": "function"
    },
    {
      "inputs": [],
      "name": "takingFee",
      "outputs": [
        {
          "internalType": "uint256",
          "name": "",
          "type": "uint256"
        }
      ],
      "stateMutability": "view",
      "type": "function"
    },
    {
      "inputs": [
        {
          "internalType": "address",
          "name": "newOwner",
          "type": "address"
        }
      ],
      "name": "transferOwnership",
      "outputs": [],
      "stateMutability": "nonpayable",
      "type": "function"
    },
    {
      "inputs": [],
      "name": "withdraw",
      "outputs": [],
      "stateMutability": "nonpayable",
      "type": "function"
    },
    {
      "stateMutability": "payable",
      "type": "receive"
    }
  ],
  "bytecode": "0x60e06040523480156200001157600080fd5b5060405162004eb138038062004eb18339818101604052810190620000379190620002d7565b620000576200004b620001f160201b60201c565b620001f960201b60201c565b6200008b7fecc7a36e129970ba84e5ca51f8df149b36a3ebab0a6a4e821c9a7b696087632160001b620002bd60201b60201c565b620000bf7fa5d82df8e3cbe85ea46c9bf6c8eb5927715b291fe7c3f30b3150e2fb7297fc0960001b620002bd60201b60201c565b620000f37fd29e261be8f33e206754d057b948036dfd8926aa5d1f486b8766035142588b2860001b620002bd60201b60201c565b81608081815250506200012f7f41b8adee0d1dcbe488439acb70b1f147ebc271f1119ed58f08066c64c37766d060001b620002bd60201b60201c565b620001637fafa6f2a9c484168ca8295f72c685b498003af46387b7bb018c44dc42a616ed8b60001b620002bd60201b60201c565b6002826200017291906200031e565b60a08181525050620001ad7f84225c78778679f941b293d423485156ae93026a40c776f3d2fb5ff9f432d8a960001b620002bd60201b60201c565b620001e17ff76187bedb27e9e7443ff2e8edf97c73ec712c4472031a9dd711c34b1370518760001b620002bd60201b60201c565b8060c081815250505050620003d7565b600033905090565b60008060009054906101000a900473ffffffffffffffffffffffffffffffffffffffff169050816000806101000a81548173ffffffffffffffffffffffffffffffffffffffff021916908373ffffffffffffffffffffffffffffffffffffffff1602179055508173ffffffffffffffffffffffffffffffffffffffff168173ffffffffffffffffffffffffffffffffffffffff167f8be0079c531659141344cd1fd0a4f28419497f9722a3daafe3b4186f6b6457e060405160405180910390a35050565b50565b600081519050620002d181620003bd565b92915050565b60008060408385031215620002f157620002f0620003b8565b5b60006200030185828601620002c0565b92505060206200031485828601620002c0565b9150509250929050565b60006200032b826200037f565b915062000338836200037f565b9250817fffffffffffffffffffffffffffffffffffffffffffffffffffffffffffffffff048311821515161562000374576200037362000389565b5b828202905092915050565b6000819050919050565b7f4e487b7100000000000000000000000000000000000000000000000000000000600052601160045260246000fd5b600080fd5b620003c8816200037f565b8114620003d457600080fd5b50565b60805160a05160c051614a79620004386000396000818161075801526119db01526000818161088a0152818161097101528181610a3901526119a301526000818161036b0152818161268a0152818161277101526128390152614a796000f3fe6080604052600436106100ec5760003560e01c8063715018a61161008a578063ad1a7d0c11610059578063ad1a7d0c146102bc578063f2fde38b146102f9578063f87c202814610322578063f9f33e821461034d576100f3565b8063715018a6146102125780638c846581146102295780638da5cb5b14610254578063a73b732c1461027f576100f3565b80632c2c18ab116100c65780632c2c18ab1461016a5780633bc5f48a146101a75780633ccfd60b146101d057806351e9ad1d146101e7576100f3565b80630d6841fb146100f857806312065fe01461012357806312775c161461014e576100f3565b366100f357005b600080fd5b34801561010457600080fd5b5061010d610369565b60405161011a91906143c6565b60405180910390f35b34801561012f57600080fd5b5061013861038d565b60405161014591906143c6565b60405180910390f35b61016860048036038101906101639190613cc6565b610421565b005b34801561017657600080fd5b50610191600480360381019061018c9190613d40565b61104c565b60405161019e9190614382565b60405180910390f35b3480156101b357600080fd5b506101ce60048036038101906101c99190613cf3565b611367565b005b3480156101dc57600080fd5b506101e56116f6565b005b3480156101f357600080fd5b506101fc6119a1565b60405161020991906143c6565b60405180910390f35b34801561021e57600080fd5b506102276119c5565b005b34801561023557600080fd5b5061023e6119d9565b60405161024b91906143c6565b60405180910390f35b34801561026057600080fd5b506102696119fd565b60405161027691906141b3565b60405180910390f35b34801561028b57600080fd5b506102a660048036038101906102a19190613d40565b611a26565b6040516102b39190614382565b60405180910390f35b3480156102c857600080fd5b506102e360048036038101906102de9190613cc6565b611d41565b6040516102f09190614382565b60405180910390f35b34801561030557600080fd5b50610320600480360381019061031b9190613c99565b61209d565b005b34801561032e57600080fd5b50610337612121565b60405161034491906143c6565b60405180910390f35b61036760048036038101906103629190613cc6565b6121b2565b005b7f000000000000000000000000000000000000000000000000000000000000000081565b6000610397612d1a565b6103c37fde09944370d638b7c999b1524b1c251cf33287a22be712414be0afe24769ba6060001b612d98565b6103ef7f2dc42acc712d3fbf3136e174a9a2547c78f097caf4ab176cdf0055b811f8073e60001b612d98565b61041b7f141e54dd5a2b5645f010a6f234c669bd1ef8f682dd50f5d73dfe9c16a06b7e1e60001b612d98565b47905090565b8061044e7fdbe9712aa9daa1a0e464f622dc98c43bd96c7ed5a55bcee2d1bdc92d766a84ae60001b612d98565b61047a7f4152abd09cb16964470a512f6c8fce56711d78f86b2b03fd226f6c440202b83460001b612d98565b6104a67f2fd2ef56ed25c421911a9e62e239b8c5b9864896841a223191f96422452744d860001b612d98565b6104d27f2eb08bd16ea3b85c719eb6b2b8912f582ccdc217520b5d78e55736bd7d1226f960001b612d98565b6001600301600082815260200190815260200160002060009054906101000a900460ff16610535576040517f08c379a000000000000000000000000000000000000000000000000000000000815260040161052c906142e2565b60405180910390fd5b6105617f2a1aa757b110131a34bcb0a7a7e1e948ad42d552f716bd1a524c9086aaec16e560001b612d98565b61058d7f1be8237a73f5150d89424a03fdf65778e6ab31368017b32dffc256318d6e67a360001b612d98565b6105b97f6c2911c4c3e7bef972d56956f2ce1811a31f338c243a0e808d18eca671edb0d560001b612d98565b6105e57f79a1549d70f82b5d96ae51b624200fad988d8cefc10429ad1e32b78d4708952560001b612d98565b6106117f7241af973fffceeb15f3fc4251c55ff421a41c6fa11f182f01628979e85e3fec60001b612d98565b61063d7f41bd49f08c209dbb0a6c828f999d626f277b7056c50555a6c0c5c5f966350cbe60001b612d98565b60006005600084815260200190815260200160002060003373ffffffffffffffffffffffffffffffffffffffff1673ffffffffffffffffffffffffffffffffffffffff1681526020019081526020016000205414156106d1576040517f08c379a00000000000000000000000000000000000000000000000000000000081526004016106c890614222565b60405180910390fd5b6106fd7fcac7943e2992c07a412f026465f12028ad6aa6fbdffd52a8f712396fb297717d60001b612d98565b6107297f9001b339288b68263bff46fc6dfdd37c3ae242cea74e9be754a593a634088c0f60001b612d98565b6107557f32fda0cf7d0208110b32f1a789c9798e06dcbd461baedca20d42d38d4b9baaa960001b612d98565b437f00000000000000000000000000000000000000000000000000000000000000006005600085815260200190815260200160002060003373ffffffffffffffffffffffffffffffffffffffff1673ffffffffffffffffffffffffffffffffffffffff168152602001908152602001600020546107d29190614489565b1015610ba7576108047fdfa1eafb7a9e3536b07c1ee50650cbdb8097db25e9dd58cfa89bb12ec9764ebc60001b612d98565b6108307fecd7be36090d1017783d799b80c8bca07dc3cf776f835ccac77cd328b240391060001b612d98565b61085c7f1ba4bb2bd8811c8341d1a4a35bb3bc6b505d5b84d953efeedda6dc9dbb5469a460001b612d98565b6108887f25830a55dddbf8f2b16d50cbf02ad2702fccb977248bbfccd1268c0b1ae0fae760001b612d98565b7f00000000000000000000000000000000000000000000000000000000000000003410156108eb576040517f08c379a00000000000000000000000000000000000000000000000000000000081526004016108e290614282565b60405180910390fd5b6109177f7940b64a4000cf7dd362959e57c95929194d4d3f1a04e2ed3d7a0904c74b850660001b612d98565b6109437f03257fc8989839e3b46c4b0e632c61ed86657acc0cd25451900f5bf2d904b9fc60001b612d98565b61096f7fe66dd44757b3a0dadf052b235442a55769dde6f7f771091a650c2479bbacd64660001b612d98565b7f0000000000000000000000000000000000000000000000000000000000000000341115610b75576109c37f5853a1fa8ae9a02ed414fb82a2c3fdf0c96000610c0d191de8c6679f506d13f760001b612d98565b6109ef7f4a84d6f512be2194ad4869a589f24bed692839a4d6cb9a8e217da49226ee877a60001b612d98565b610a1b7f1f566d07bc3a99bff2214734d7e98809cccfc354549a46dee17562eaf2facef660001b612d98565b60003373ffffffffffffffffffffffffffffffffffffffff166108fc7f000000000000000000000000000000000000000000000000000000000000000034610a6391906144df565b9081150290604051600060405180830381858888f193505050509050610aab7f1cfb3d5b7470b0eb5595148ad88d42304f906b370a0a30f6845bc49f8531c2b460001b612d98565b610ad77f3615157b160efd6d4ace9f69ad630bb0636f7d3d1282a624df54cdc725fedb7e60001b612d98565b610b037f77c1f7a2ebfc5b9ace6231adccec9b7346f519a0e9050f21fbf5a7cc29495ac860001b612d98565b80610b43576040517f08c379a0000000000000000000000000000000000000000000000000000000008152600401610b3a906142c2565b60405180910390fd5b610b6f7f68d90a8f2bb86ab23c86d8d9448691f005e56c68ed3b403e08a74ab85066afee60001b612d98565b50610ba2565b610ba17f96766d82c9ee2f08baeeff46ed8d5a0c50ae4d457f148236addfe61e06e7b41760001b612d98565b5b610de9565b610bd37f5c75740882d6215bd51b2cdfd1b7e44ff1f53443ba836b082e5cd6725fac7cd660001b612d98565b610bff7fd1edf026a2a36343eb38ba47d8172644b988138a301d252af7bedee429d9695360001b612d98565b6000341115610dbb57610c347fbe4c5a50b6a1d0d0fca506112b94e73064fb07dc02fc0585db44348083279c6660001b612d98565b610c607f99bd091fbd609d0c71b55c08a67c63bbbe1e5b7edcf7a23540c743ec4a7efd4a60001b612d98565b610c8c7f61916e696774011296d000528b03c39d8a2833b72afcfb9c23f465cb369917fb60001b612d98565b60003373ffffffffffffffffffffffffffffffffffffffff166108fc349081150290604051600060405180830381858888f193505050509050610cf17f065b59d4ad85ff876828d8173c3843488e181576d32ee4d76968cf4a6f03a78860001b612d98565b610d1d7f6f3cdda1c998f9f30a1c0e299c39c3a8b48e241dd11e81997912294b6812616b60001b612d98565b610d497fa12b81f774c994494a4356da15c7fd1fa1f8f87e91dca4ead8c81d66cded4db060001b612d98565b80610d89576040517f08c379a0000000000000000000000000000000000000000000000000000000008152600401610d80906142c2565b60405180910390fd5b610db57fc015d8c6243a506bbfe9c7ecae45a2525cd651a820cc8dff494d83341cb2d7a760001b612d98565b50610de8565b610de77fd4d4b768ce3e546c21dacd23e9eb671c122fabe39d72f17f5c9cf6a35e3b0d9f60001b612d98565b5b5b610e157fe8637f1f783e33f3a869acf9e4f76fc7c0b35a2c7daccd7724a97cdae415959160001b612d98565b610e417fe3835089abaf34c7469a7a7e6e04bdaddb4638e64230f85bae91b1e24cd19c6560001b612d98565b6000610e57836001612d9b90919063ffffffff16565b9050610e857f2294efca2303103ce842af39172e039dfc61c2fb65edc6217f5cf2c75be298a060001b612d98565b80600101600081819054906101000a900460ff1680929190610ea690614699565b91906101000a81548160ff021916908360ff16021790555050610eeb7fa424f374eb6f4dfaa98c3e4fcf126a55bae105e26c3ae3975e9b001436c7097460001b612d98565b6005600084815260200190815260200160002060003373ffffffffffffffffffffffffffffffffffffffff1673ffffffffffffffffffffffffffffffffffffffff16815260200190815260200160002060009055610f6b7f1ed57f797c156af1b0da919c0b52ddeeb628f94a0aa89236093bd5b3d53d365460001b612d98565b610f977f7fa375e07b18982589d850046fc6219718054f2e3c1654134690388d40eb7d7f60001b612d98565b610fa083612e3e565b610fcc7f5fbe281176584df4f0b59d814e50034a8b6083fc74756f723584424cffc89bb260001b612d98565b610ff87f01f2ff2b5a6e9fcc326903de5ed859aeaaaec90dda0abb03a9b650bfb622cb0a60001b612d98565b823373ffffffffffffffffffffffffffffffffffffffff167f0dfd2a8ea29b6e9cbb3642c9c0204235fbcc20b54fd442b3a77ff1c33a8b2fe98360405161103f91906143a4565b60405180910390a3505050565b611054613ab3565b6110807f6f2fa2bce3261479f67486bfaa015d25b52dd9870661007d5187fe6030164b3f60001b612d98565b6110ac7fa9a7d3471954c4239cffb1bb1d30739254fdb4d4d175f31c9efb91b681f1d31660001b612d98565b6110d87fb0278b00080791a0eef79267b5f5ef30269e6675272aa0b15994592a3b624b8b60001b612d98565b6111047f9858e97b5b120a0a234b31b885d290deb094642842e9370e0714f5465622839560001b612d98565b8160ff1661111260016130d6565b60ff1611801561112e5750600061112960016130d6565b60ff16115b61116d576040517f08c379a000000000000000000000000000000000000000000000000000000000815260040161116490614322565b60405180910390fd5b6111997f71d02aeb0948565b1687b2f775e9748127cb4e14e7cdf29202b981c0e08d145760001b612d98565b6111c57f806ee70860c9c93c71658212c9bad35f85341033f1a7e3499f07e82bbf0c233f60001b612d98565b6111f17f7e5667e8f249e4173af916cbd8382a0bdb7a95ab7d06c19c87ef9fdebf315b5660001b612d98565b61121861120883600161316b90919063ffffffff16565b6001612d9b90919063ffffffff16565b60405180606001604052908160008201805461123390614633565b80601f016020809104026020016040519081016040528092919081815260200182805461125f90614633565b80156112ac5780601f10611281576101008083540402835291602001916112ac565b820191906000526020600020905b81548152906001019060200180831161128f57829003601f168201915b505050505081526020016001820160009054906101000a900460ff1660ff1660ff1681526020016002820180548060200260200160405190810160405280929190818152602001828054801561135757602002820191906000526020600020905b8160009054906101000a900473ffffffffffffffffffffffffffffffffffffffff1673ffffffffffffffffffffffffffffffffffffffff168152602001906001019080831161130d575b5050505050815250509050919050565b61136f612d1a565b61139b7fe1310f1f4b7108a81f465e97d4c2329331e6e42b56b8d36528ba0a294d786c5260001b612d98565b6113c77f4a444fd7570b3311be9ed022b684b742b71a10206f3128669ef19b2ac299fc1360001b612d98565b6113f37fd7e290881c684b70e59e353db7142f8802c7d4b43f44366bee65329ff20a3b5a60001b612d98565b600082826040516020016114089291906141fe565b60405160208183030381529060405280519060200120905061144c7f7f23d9d0ea46b4ee6232fefd4e264d2bac2bfb0c6b7c5d5bd8b2c5bc1c035bb960001b612d98565b6114787fb45eac5d5e473d3c52b624193a2ecd2f01067985248b4f54acddee94e238d89e60001b612d98565b611480613ab3565b6114ac7f4d70dc27b230a5930ffec411133f1ae5b36211ce820fcd2340141abec639adb760001b612d98565b6114d87f8bd3397cf4b92553f59815be83605ec68ad7a553b873d8dd3768a4e145e0974460001b612d98565b83838080601f016020809104026020016040519081016040528093929190818152602001838380828437600081840152601f19601f8201169050808301925050505050505081600001819052506115517f9634ad74c14becf4895adf1ebe75ef41594704381df6d4c04cbd80d3eb0ddff660001b612d98565b61157d7f10031020dc658d01fa4e6f68c866e7aa63da4de038e26e86be46b66aba74278560001b612d98565b6001816020019060ff16908160ff16815250506115bc7f4c00d2005713dd3101f603c01b27e5161f165111159a057b5cf9764d9507482f60001b612d98565b6115e87fc184dbc81e334f96514fb1df8ff67edbec77d5329b20091fd2e9288d34d6db3760001b612d98565b6115fe8282600161321d9092919063ffffffff16565b61162a7f49162b3b51a3c18cba33a1a20a1bcce387dd99e9ae4d14a1ff83e9330f98f52a60001b612d98565b6116567f641107db236d14bbd2d660f9a5cee98afab3e467f0364d6f5c1131bc2db7e1a860001b612d98565b61165f82612e3e565b61168b7fdf97ac984a9c3008c901a0a2bc0e05935afddf89bf6673776cc5aad7693af75060001b612d98565b6116b77f54d2b87b19118bfbd8186e2c2ce1519232541488d314062a39b884147588616c60001b612d98565b7ff4c2bab87497352daa93c241bda5027554baf392aba54a0ece850466cc56db0b82826040516116e89291906141ce565b60405180910390a150505050565b6116fe612d1a565b61172a7f5c1a27ef4fc11b581d3deb36b1a0810aa5e4ed0dab3fa8c852652945fcc9b85560001b612d98565b6117567fdb13f960977c4f701e0a2e2f959279f7d47f9fb3753e5c4bc983862252e58c8860001b612d98565b6117827f06e4a2029bb03751f4f3866acec4ad7e03656613118724b00f45668c21415d6460001b612d98565b6117ae7f6479f5e406cfa0b25a02fe44070c334f072e45c137e79a6454ec733ffb42806460001b612d98565b600047116117f1576040517f08c379a00000000000000000000000000000000000000000000000000000000081526004016117e890614342565b60405180910390fd5b61181d7fc91263823f44163ba0842d57ff51e5ee946874ddcbeb22c902a8d23e86ca776e60001b612d98565b6118497f9f65bb5fd7ccd06129fccc29abc50fbae75426b2c5b5351d25197f9a12771d0160001b612d98565b6118757fb145ccf6ffe86c5d77bea412b1bd32a3897cf80a1394391051473196db0055c260001b612d98565b60003373ffffffffffffffffffffffffffffffffffffffff166108fc479081150290604051600060405180830381858888f1935050505090506118da7f3cb2fac1d85fb97d0d985f057c8585393205275979becc441cc4b85b035ae51e60001b612d98565b6119067f24c3b0c710e714d56416a534f2a62a582bcee038835dc276e857cc3832e7bd0f60001b612d98565b6119327f7085ac28c3dc27edf4f62b51ee7d5b4c39ecce9ed4ef57e9444d7c94233c360560001b612d98565b80611972576040517f08c379a0000000000000000000000000000000000000000000000000000000008152600401611969906142c2565b60405180910390fd5b61199e7f9ebb49d073b9f458976650d4dcd93d54ca1dbcf187737310ecb83ea5cbcb3c3060001b612d98565b50565b7f000000000000000000000000000000000000000000000000000000000000000081565b6119cd612d1a565b6119d76000613608565b565b7f000000000000000000000000000000000000000000000000000000000000000081565b60008060009054906101000a900473ffffffffffffffffffffffffffffffffffffffff16905090565b611a2e613ab3565b611a5a7f7c4fb2f2c5c8b7a069da90a69bbbcc09a776920ab40c765c26e1afc1d03765c460001b612d98565b611a867f33dc277a47c24c1682106e7fb0bfdeb50f3cca52d94f049ed7023cf00422d7cb60001b612d98565b611ab27fe7dcb975600c9e2348901e9a7063a064294b07cd6c9fb8605cd70eb401f12ff360001b612d98565b611ade7fb5e884fee7eba75651c4368ac92b132c1003a7acf1826e872ec6e31575ae173960001b612d98565b8160ff16600680549050118015611afa57506000600680549050115b611b39576040517f08c379a0000000000000000000000000000000000000000000000000000000008152600401611b3090614322565b60405180910390fd5b611b657f3dc5461a5b1926d15d3a443d1a14f8e5b43f0dc1dd6cec236470ba80c63eae7360001b612d98565b611b917fc0c3dd77e62cb4eccb2256818cfcf4cc65af843be340030296440cff4d28262f60001b612d98565b611bbd7fbf9129e4ef1bd3599b998c7025872585ee3252176adb5181374486d6d6d48e4960001b612d98565b611bf260068360ff1681548110611bd757611bd6614750565b5b90600052602060002001546001612d9b90919063ffffffff16565b604051806060016040529081600082018054611c0d90614633565b80601f0160208091040260200160405190810160405280929190818152602001828054611c3990614633565b8015611c865780601f10611c5b57610100808354040283529160200191611c86565b820191906000526020600020905b815481529060010190602001808311611c6957829003601f168201915b505050505081526020016001820160009054906101000a900460ff1660ff1660ff16815260200160028201805480602002602001604051908101604052809291908181526020018280548015611d3157602002820191906000526020600020905b8160009054906101000a900473ffffffffffffffffffffffffffffffffffffffff1673ffffffffffffffffffffffffffffffffffffffff1681526020019060010190808311611ce7575b5050505050815250509050919050565b611d49613ab3565b81611d767fdbe9712aa9daa1a0e464f622dc98c43bd96c7ed5a55bcee2d1bdc92d766a84ae60001b612d98565b611da27f4152abd09cb16964470a512f6c8fce56711d78f86b2b03fd226f6c440202b83460001b612d98565b611dce7f2fd2ef56ed25c421911a9e62e239b8c5b9864896841a223191f96422452744d860001b612d98565b611dfa7f2eb08bd16ea3b85c719eb6b2b8912f582ccdc217520b5d78e55736bd7d1226f960001b612d98565b6001600301600082815260200190815260200160002060009054906101000a900460ff16611e5d576040517f08c379a0000000000000000000000000000000000000000000000000000000008152600401611e54906142e2565b60405180910390fd5b611e897f2a1aa757b110131a34bcb0a7a7e1e948ad42d552f716bd1a524c9086aaec16e560001b612d98565b611eb57f1be8237a73f5150d89424a03fdf65778e6ab31368017b32dffc256318d6e67a360001b612d98565b611ee17f4a398c566032c1099831efcfe9a93950b7ea169ff5d431b0dfd7e30670d617ca60001b612d98565b611f0d7fb8a96e154fcb09b689f0ee06032c661a89b699ecaffaf884e51103a7bde8786560001b612d98565b611f397fb2f97e545a177012ba78d52228c8750321cb0ca898dcb8f84621779a316b653c60001b612d98565b611f4d836001612d9b90919063ffffffff16565b604051806060016040529081600082018054611f6890614633565b80601f0160208091040260200160405190810160405280929190818152602001828054611f9490614633565b8015611fe15780601f10611fb657610100808354040283529160200191611fe1565b820191906000526020600020905b815481529060010190602001808311611fc457829003601f168201915b505050505081526020016001820160009054906101000a900460ff1660ff1660ff1681526020016002820180548060200260200160405190810160405280929190818152602001828054801561208c57602002820191906000526020600020905b8160009054906101000a900473ffffffffffffffffffffffffffffffffffffffff1673ffffffffffffffffffffffffffffffffffffffff1681526020019060010190808311612042575b505050505081525050915050919050565b6120a5612d1a565b600073ffffffffffffffffffffffffffffffffffffffff168173ffffffffffffffffffffffffffffffffffffffff161415612115576040517f08c379a000000000000000000000000000000000000000000000000000000000815260040161210c90614262565b60405180910390fd5b61211e81613608565b50565b600061214f7f54688d258c3a1008d74dbbe370795fc1165d3a4fd0771d376f2a58d197ed284760001b612d98565b61217b7f11ebf8ae0574cc0db1b10d5f0702dcef8e954f0a21ebfdfba995046d268308b960001b612d98565b6121a77fca5257037e7849846594ac252d6764f57cd1111569f609aabcf2f26bbb0b200b60001b612d98565b600680549050905090565b806121df7fdbe9712aa9daa1a0e464f622dc98c43bd96c7ed5a55bcee2d1bdc92d766a84ae60001b612d98565b61220b7f4152abd09cb16964470a512f6c8fce56711d78f86b2b03fd226f6c440202b83460001b612d98565b6122377f2fd2ef56ed25c421911a9e62e239b8c5b9864896841a223191f96422452744d860001b612d98565b6122637f2eb08bd16ea3b85c719eb6b2b8912f582ccdc217520b5d78e55736bd7d1226f960001b612d98565b6001600301600082815260200190815260200160002060009054906101000a900460ff166122c6576040517f08c379a00000000000000000000000000000000000000000000000000000000081526004016122bd906142e2565b60405180910390fd5b6122f27f2a1aa757b110131a34bcb0a7a7e1e948ad42d552f716bd1a524c9086aaec16e560001b612d98565b61231e7f1be8237a73f5150d89424a03fdf65778e6ab31368017b32dffc256318d6e67a360001b612d98565b61234a7fa86c8f5a5256ba2cf93a65ff5332193e4d87931c0017356088f7f96d1a0890ad60001b612d98565b6123767f208eba3601aa6c4f47ccfc30a2b9be63588f6dc4234be5da54ac9499f99aa1f360001b612d98565b6123a27f9162b5f89979e041e3a1b43dcc86be6506e6e49c27139b8d7d8ce826e49007d360001b612d98565b60006123b8836001612d9b90919063ffffffff16565b90506123e67ffc06432fbf0c209442fc3e9addc10f669ce0d97822a710baba4c2312230158b360001b612d98565b6124127fb11a4065d3cba7f0f24b1a3711cba66b543eee174a94c4cedcb84b2414ec516c60001b612d98565b61243e7ff5130a44263806018232ea91101820108f9c6e639f10c6b6b082ee97c12e22bb60001b612d98565b60008160010160009054906101000a900460ff1660ff1611612495576040517f08c379a000000000000000000000000000000000000000000000000000000000815260040161248c906142a2565b60405180910390fd5b6124c17fd211ba975e2d596719c290dd41aace616fa86961a7609dc25dda29fb26c1920e60001b612d98565b6124ed7f99cb80cc75880b87e05c2024709201a645d7557f4bc90438cf977632921e1f0760001b612d98565b6125197f583595748a12d696db954b56fc991b1ee13a6bbd3a0a5c5e59ef1597e637fc1160001b612d98565b6125457f05f59d7d818ad95b1d62e4d5ab5e85855a23276b233ac9c413d02edb6893b83c60001b612d98565b60006005600085815260200190815260200160002060003373ffffffffffffffffffffffffffffffffffffffff1673ffffffffffffffffffffffffffffffffffffffff16815260200190815260200160002054146125d8576040517f08c379a00000000000000000000000000000000000000000000000000000000081526004016125cf90614242565b60405180910390fd5b6126047fffebca25a3638cae9f5550f250b320581f2bd93bc001f192ad171512d79b08d160001b612d98565b6126307faf5de0afae8f7c57ea086ac97c76a75ea38d2a3db445d2ea002576ff8a6b24ed60001b612d98565b61265c7ff6332c1e3cedbd9247b3f75fe4b85661138146682187a70e01f338cfe381e6fd60001b612d98565b6126887f8ab82058b0037edf71e77b2595d278f48b67c4691eb4788ec95524b7208842d160001b612d98565b7f00000000000000000000000000000000000000000000000000000000000000003410156126eb576040517f08c379a00000000000000000000000000000000000000000000000000000000081526004016126e290614362565b60405180910390fd5b6127177fbbd317f8a9f8ca5d962fc287dc5eb3f2e9fe6e31fa79258ddc9ccde68c0f819b60001b612d98565b6127437f0fb10c25c641446c535b58de653ef1de870de4a6fe4702c973443e7421203c1260001b612d98565b61276f7f2462abf170d95c46a316bdf33ebf168809f090a06f65569f712bba9f283463f260001b612d98565b7f0000000000000000000000000000000000000000000000000000000000000000341115612975576127c37f4c699db5591221d403fff5096e1eb3b5b3f20e4a16aa3cbe842ec1cfbbb3c4dc60001b612d98565b6127ef7f83f4bd54c580a615f512987b97311d1d499b3ad3b00c4c8b3377f0b7ebe7cd1260001b612d98565b61281b7f578c751b5c0031c395c1ad6938f8af43e9ccf51b6d73bbaef3483f838322874660001b612d98565b60003373ffffffffffffffffffffffffffffffffffffffff166108fc7f00000000000000000000000000000000000000000000000000000000000000003461286391906144df565b9081150290604051600060405180830381858888f1935050505090506128ab7fe72549ff990ad3e6650cf133a5b5b0fa4678d0cbc1d5de87d642acbe0a6c82e360001b612d98565b6128d77f917f1611530a667594d84f93811bf19862bc90c303f6e8f9e27b0fceb4d1ebf660001b612d98565b6129037f1cb13e4e1548c736dc9bcfa22a977b78c19dd7d0bb1d43e9671241346016f44660001b612d98565b80612943576040517f08c379a000000000000000000000000000000000000000000000000000000000815260040161293a906142c2565b60405180910390fd5b61296f7f1af8a010abd706bdb8062ee030d610c055a017d070633cba22c286bf7e6fbd4460001b612d98565b506129a2565b6129a17f5db6eda1034eec9712c6c458a9c9bbb3af4c45f35796b57474b77806cf251a4860001b612d98565b5b6129ce7f5feb0caa543b88321696c1088850dfd14020a9a2190b9b99720fe5a6f38b2fad60001b612d98565b6129fa7f30948829536b88ff5922bea0005bae55e4e5bcb01ac531e2b19ceab94e49dfee60001b612d98565b80600201339080600181540180825580915050600190039060005260206000200160009091909190916101000a81548173ffffffffffffffffffffffffffffffffffffffff021916908373ffffffffffffffffffffffffffffffffffffffff160217905550612a8b7f387d18fb98b8e71b156449ed38e575ffad1a4e8dc28aa148ba329343dc66772060001b612d98565b612ab77f102d1379c16e0cdc0b2fa36c7d95577e37cf85ea740439ee4842334a09322e6f60001b612d98565b600143612ac49190614489565b6005600085815260200190815260200160002060003373ffffffffffffffffffffffffffffffffffffffff1673ffffffffffffffffffffffffffffffffffffffff16815260200190815260200160002081905550612b447f38fe9fb694efb72d056445b89af3724c1badff8fb228903d98cffec8bc56717760001b612d98565b612b707fc5f7e790452e61419e893958cdb065be992ec76c9eaa747db3457f1d629b5ca460001b612d98565b600081600101600081819054906101000a900460ff16612b8f90614609565b91906101000a81548160ff021916908360ff160217905560ff161415612c4157612bdb7f9a0237a3d09220b0ed5bc49b55d202e8b2ea11f70b75fa39a4e62aedd7dcb64460001b612d98565b612c077f4db1a143fd5da20412a07a89ffe34e0cf0a06adeecd6af45b0f6b31d4bba950560001b612d98565b612c337f968ffe021248b3be8b1cbbbba9a53068a32fef2e8cdd4c0411e3baed95aa5e9560001b612d98565b612c3c836136cc565b612c6e565b612c6d7ff1374135b7c0a6664f3579b4c58b7b55d8ae9a3256aec9c076b8ac7eabce99f960001b612d98565b5b612c9a7fe845e8be1d6bd0a44dda5bb9686b48c92fbc884b00b294a36a9a1ca59411806b60001b612d98565b612cc67f6798e970913c69d3cc555277d5731b26a71110893f63ee1de1fd8b2f6c62228e60001b612d98565b823373ffffffffffffffffffffffffffffffffffffffff167f322b1260600e7530f299d5269bb3e32b61f9169a1c61fa98e92e28dffd604b9f83604051612d0d91906143a4565b60405180910390a3505050565b612d22613aa8565b73ffffffffffffffffffffffffffffffffffffffff16612d406119fd565b73ffffffffffffffffffffffffffffffffffffffff1614612d96576040517f08c379a0000000000000000000000000000000000000000000000000000000008152600401612d8d90614302565b60405180910390fd5b565b50565b6000612dc97fddfc8a9afbb2d265b19fbf5087e25409451fa1d96578924ceecfaebe57fd419860001b613ab0565b612df57fcc989a246d2ad6f50d4119e6e65875fd3dec9ea54cd0b02a42a03a520a8424e460001b613ab0565b612e217f3924d5988b3ae9e21a0c7a3eea87eef629715944c887f939df187acc0c6d60d360001b613ab0565b826001016000838152602001908152602001600020905092915050565b612e6a7fcf417c2a838c7419920bd48b37992f01e6ee5fbfd6c13285c1993835c5fa722260001b612d98565b612e967f99743e4e43ff49042f8bc8f73665cd7a0154c51b9d135f34b27a15497dd36ab960001b612d98565b612ec27f01bad6eff381f7890d73d991d2674910a7545494abcee2904e5e8a35640e1be360001b612d98565b6008600082815260200190815260200160002060009054906101000a900460ff166130a657612f137f7b5e2adf06b1250c25a4e2bb9907de35acc5ba3a27b34d9c3d2e976a0134bb4660001b612d98565b612f3f7fd3a890cd053b9d770c288cdd06e28439a045c90e35d944277b818162262c488560001b612d98565b612f6b7fae899132c083f79aff0e157ce05166b4b3d20e812a3bbca9688f383640e9a2a060001b612d98565b60016008600083815260200190815260200160002060006101000a81548160ff021916908315150217905550612fc37f9f8e1a1548de76277437c531af8b560cd36a76837f760e2535f4fc6cd4d7b74b60001b612d98565b612fef7ff75ef5221f214398dda338f7e06370579ca06a02ddfbaa8fd19b6e9850d48eea60001b612d98565b6006805490506007600083815260200190815260200160002060006101000a81548160ff021916908360ff16021790555061304c7f54586a9bcd4deb65fcd0a9dc6911f8f74a6cd5a21704eca1d2a9ca1ec618456e60001b612d98565b6130787fae4fa37e6376bef79139a5703757affe20741365f197537603d8ce3a694d6ee960001b612d98565b60068190806001815401808255809150506001900390600052602060002001600090919091909150556130d3565b6130d27fd11773468ddc1d0748953233ee5bebfd0491422ee2ee799999af356d4cc299a260001b612d98565b5b50565b60006131047f9435684a435b202ffa0abb3c6a66a329ca962558260c6b9d4c8010ca750deeda60001b613ab0565b6131307f38a3b0815f981a512d2116c5a3644ad64f414d848ce6aac50900cdfc30db7e5660001b613ab0565b61315c7f1e0c3f713ef1d89526f1e6eed4b5936f4f5df37beb997b430ce881765c95880260001b613ab0565b81600001805490509050919050565b60006131997fe47c4a666769cedfe02fde0ecf985d0fe4c34d15bf98a6058ca1a92bd890994160001b613ab0565b6131c57f4674adb7866b2e06555925722166153a78b5fc38894fd0285aaf411ecff0c1fd60001b613ab0565b6131f17fa130839fd458d6975a62b022c5e2e4efe972749a2d1be90febc089521393602460001b613ab0565b826000018260ff168154811061320a57613209614750565b5b9060005260206000200154905092915050565b6132497f9be8ecd624fa92b8c65e212d0432426c741592566591ac0432ab030c32418a8560001b613ab0565b6132757fda9a88798c0894ad77d28aca4b9d1ef8863f52a034b08027886af6f1f708261c60001b613ab0565b6132a17f6a610697e62cdc2ce2e38b619305bc2f7f9b28e6a69cf5c375fea3837c9455dd60001b613ab0565b82600301600083815260200190815260200160002060009054906101000a900460ff1615613374576132f57f0c96adbaac3c42df94efbcfbcb5ab29ae7ce23070b7cfa957f49cb8d423ec05260001b613ab0565b6133217f1a6186192a5c78cb0b6a23ac11ed8203485bca8857ece139b98a4a9a7239f4ea60001b613ab0565b826001016000838152602001908152602001600020600101600081819054906101000a900460ff168092919061335690614699565b91906101000a81548160ff021916908360ff16021790555050613603565b6133a07f52b0104d16d2e62c65d7ec5c51ee8da6b70762c1f413c49b0399d83e0380ad3660001b613ab0565b6133cc7f6d0f8cd0d8fc450533b210f1d0e0f9d639f8a647409048c5d9199ffdb4f0747260001b613ab0565b6133f87f524d3cb2dea0705550f62e6e6c1d63a55af8b1496b472eb4e7c5df11c19342ae60001b613ab0565b600183600301600084815260200190815260200160002060006101000a81548160ff0219169083151502179055506134527f1ecbeb9a8b1b106ba12f1a551a007f90277238f5a0bbf51a583777d608317aea60001b613ab0565b61347e7f1fffb143c216c2836501b8ac1302c259cee6af8525b6f0e5344d2199cd3cebaf60001b613ab0565b8083600101600084815260200190815260200160002060008201518160000190805190602001906134b0929190613ad7565b5060208201518160010160006101000a81548160ff021916908360ff16021790555060408201518160020190805190602001906134ee929190613b5d565b5090505061351e7f7c87758c7670ddbc86b0e467177648569d667953823558df435812be1327b03360001b613ab0565b61354a7f3bbbe84bc2267d61539b96a8b720eb499e20e64ab488089dd3d81c93cf4228f360001b613ab0565b826000018054905083600201600084815260200190815260200160002060006101000a81548160ff021916908360ff1602179055506135ab7fc4d79d16281d79f212c42d62064e3b61f24446cbcb5834dbb8cc26becb090da760001b613ab0565b6135d77fc657f229851d809675ee3802428cce90140333355e4fb0112c41be858a552abf60001b613ab0565b826000018290806001815401808255809150506001900390600052602060002001600090919091909150555b505050565b60008060009054906101000a900473ffffffffffffffffffffffffffffffffffffffff169050816000806101000a81548173ffffffffffffffffffffffffffffffffffffffff021916908373ffffffffffffffffffffffffffffffffffffffff1602179055508173ffffffffffffffffffffffffffffffffffffffff168173ffffffffffffffffffffffffffffffffffffffff167f8be0079c531659141344cd1fd0a4f28419497f9722a3daafe3b4186f6b6457e060405160405180910390a35050565b6136f87ffc9a2ab6b20a5f8d88c1860a1ecff7e69f2d069a56214618a76a96ea007c56ce60001b612d98565b6137247ff7ce08067c0bc05cd2f3c8613864654f1b17e9dde31c8c0edd95cfe8516ebf2460001b612d98565b6137507f1253ca8e47085c33cb83141e82bb86808fd454443667e72a06c9b6a4a88b5ab960001b612d98565b60006007600083815260200190815260200160002060009054906101000a900460ff1690506137a17fdbed3bb92b6c7710d59013aada47302e0f27832c228829fe8c85c660e4fea92660001b612d98565b6137cd7f3bc93cb01bbdac25c3e3a2bd12c8b0e976539f63ce590eb7c234679b020097a760001b612d98565b600060016006805490506137e19190614513565b905061380f7f813578762f6b00fd7bf3b5951c1642e3af8180b8ae7fe06fff02e684cc5c38fc60001b612d98565b61383b7f987e8d31d819f3d0e732ea8ef1d593a518544cb5714cbc647e925c58ce08578a60001b612d98565b600060068260ff168154811061385457613853614750565b5b9060005260206000200154905061388d7f6690435fc2d18a56c1270a5cfdc7a36084acfbf1edcd67ddd1eb05562745775f60001b612d98565b6138b97f30e89ac42ba3d2692ac73563dbe0116ec09515fd386ccc01b8a9ea6500a78c2760001b612d98565b60068260ff16815481106138d0576138cf614750565b5b906000526020600020015460068460ff16815481106138f2576138f1614750565b5b906000526020600020018190555061392c7ff70f35cb71f9da9c9c606cc0acf7d27a97b7955f9c7d96e99a9dd7b30f5af7bc60001b612d98565b6139587f1be25215f678ee5d90eae13007e036005e9005abfe73a41cd711a3de9d5a209560001b612d98565b600680548061396a57613969614721565b5b600190038181906000526020600020016000905590556139ac7fa6c53d00c808f3df4e0c490ad02bc7c70ae7fb35f51149e56cd702a53bd126d660001b612d98565b6139d87fe48d14b510978951b0fe15ae2f9a0a6418a7514adf5fea67951c8d0aa5527dbd60001b612d98565b826007600083815260200190815260200160002060006101000a81548160ff021916908360ff160217905550613a307ffa1eb9e240725fca8c9d9dae7ff12c63d1d327d25ddc74b2914f83e9bd84f33f60001b612d98565b6007600085815260200190815260200160002060006101000a81549060ff0219169055613a7f7f35b91dd6be9dcba90e2cd73207a437a056d1ba37a8b3c012bffbc0765aa4807860001b612d98565b6008600085815260200190815260200160002060006101000a81549060ff021916905550505050565b600033905090565b50565b604051806060016040528060608152602001600060ff168152602001606081525090565b828054613ae390614633565b90600052602060002090601f016020900481019282613b055760008555613b4c565b82601f10613b1e57805160ff1916838001178555613b4c565b82800160010185558215613b4c579182015b82811115613b4b578251825591602001919060010190613b30565b5b509050613b599190613be7565b5090565b828054828255906000526020600020908101928215613bd6579160200282015b82811115613bd55782518260006101000a81548173ffffffffffffffffffffffffffffffffffffffff021916908373ffffffffffffffffffffffffffffffffffffffff16021790555091602001919060010190613b7d565b5b509050613be39190613be7565b5090565b5b80821115613c00576000816000905550600101613be8565b5090565b600081359050613c13816149fe565b92915050565b600081359050613c2881614a15565b92915050565b60008083601f840112613c4457613c43614797565b5b8235905067ffffffffffffffff811115613c6157613c60614792565b5b602083019150836001820283011115613c7d57613c7c61479c565b5b9250929050565b600081359050613c9381614a2c565b92915050565b600060208284031215613caf57613cae6147a6565b5b6000613cbd84828501613c04565b91505092915050565b600060208284031215613cdc57613cdb6147a6565b5b6000613cea84828501613c19565b91505092915050565b60008060208385031215613d0a57613d096147a6565b5b600083013567ffffffffffffffff811115613d2857613d276147a1565b5b613d3485828601613c2e565b92509250509250929050565b600060208284031215613d5657613d556147a6565b5b6000613d6484828501613c84565b91505092915050565b6000613d798383613d85565b60208301905092915050565b613d8e81614574565b82525050565b613d9d81614574565b82525050565b6000613dae8261441b565b613db88185614456565b9350613dc3836143e1565b8060005b83811015613df4578151613ddb8882613d6d565b9750613de68361443c565b925050600181019050613dc7565b5085935050505092915050565b6000613e0c82614426565b613e168185614456565b9350613e21836143f1565b8060005b83811015613e5957613e368261477f565b613e408882613d6d565b9750613e4b83614449565b925050600181019050613e25565b5085935050505092915050565b613e6f81614586565b82525050565b6000613e818385614478565b9350613e8e8385846145c7565b613e97836147ab565b840190509392505050565b6000613ead82614431565b613eb78185614467565b9350613ec78185602086016145d6565b613ed0816147ab565b840191505092915050565b60008154613ee881614633565b613ef28186614467565b94506001821660008114613f0d5760018114613f1f57613f52565b60ff1983168652602086019350613f52565b613f2885614406565b60005b83811015613f4a57815481890152600182019150602081019050613f2b565b808801955050505b50505092915050565b6000613f68601f83614478565b9150613f73826147c9565b602082019050919050565b6000613f8b602d83614478565b9150613f96826147f2565b604082019050919050565b6000613fae602683614478565b9150613fb982614841565b604082019050919050565b6000613fd1601f83614478565b9150613fdc82614890565b602082019050919050565b6000613ff4602383614478565b9150613fff826148b9565b604082019050919050565b6000614017600b83614478565b915061402282614908565b602082019050919050565b600061403a601a83614478565b915061404582614931565b602082019050919050565b600061405d602083614478565b91506140688261495a565b602082019050919050565b6000614080601283614478565b915061408b82614983565b602082019050919050565b60006140a3601783614478565b91506140ae826149ac565b602082019050919050565b60006140c6601f83614478565b91506140d1826149d5565b602082019050919050565b600060608301600083015184820360008601526140f98282613ea2565b915050602083015161410e60208601826141a4565b50604083015184820360408601526141268282613da3565b9150508091505092915050565b600060608301600080840185830360008701526141508382613edb565b925050600184015490506141638161467f565b61417060208701826141a4565b506002840185830360408701526141878382613e01565b925050819250505092915050565b61419e816145b0565b82525050565b6141ad816145ba565b82525050565b60006020820190506141c86000830184613d94565b92915050565b60006040820190506141e36000830185613e66565b81810360208301526141f581846140dc565b90509392505050565b60006020820190508181036000830152614219818486613e75565b90509392505050565b6000602082019050818103600083015261423b81613f5b565b9050919050565b6000602082019050818103600083015261425b81613f7e565b9050919050565b6000602082019050818103600083015261427b81613fa1565b9050919050565b6000602082019050818103600083015261429b81613fc4565b9050919050565b600060208201905081810360008301526142bb81613fe7565b9050919050565b600060208201905081810360008301526142db8161400a565b9050919050565b600060208201905081810360008301526142fb8161402d565b9050919050565b6000602082019050818103600083015261431b81614050565b9050919050565b6000602082019050818103600083015261433b81614073565b9050919050565b6000602082019050818103600083015261435b81614096565b9050919050565b6000602082019050818103600083015261437b816140b9565b9050919050565b6000602082019050818103600083015261439c81846140dc565b905092915050565b600060208201905081810360008301526143be8184614133565b905092915050565b60006020820190506143db6000830184614195565b92915050565b6000819050602082019050919050565b60008190508160005260206000209050919050565b60008190508160005260206000209050919050565b600081519050919050565b600081549050919050565b600081519050919050565b6000602082019050919050565b6000600182019050919050565b600082825260208201905092915050565b600082825260208201905092915050565b600082825260208201905092915050565b6000614494826145b0565b915061449f836145b0565b9250827fffffffffffffffffffffffffffffffffffffffffffffffffffffffffffffffff038211156144d4576144d36146c3565b5b828201905092915050565b60006144ea826145b0565b91506144f5836145b0565b925082821015614508576145076146c3565b5b828203905092915050565b600061451e826145ba565b9150614529836145ba565b92508282101561453c5761453b6146c3565b5b828203905092915050565b600073ffffffffffffffffffffffffffffffffffffffff82169050919050565b600060ff82169050919050565b600061457f82614590565b9050919050565b6000819050919050565b600073ffffffffffffffffffffffffffffffffffffffff82169050919050565b6000819050919050565b600060ff82169050919050565b82818337600083830152505050565b60005b838110156145f45780820151818401526020810190506145d9565b83811115614603576000848401525b50505050565b6000614614826145ba565b91506000821415614628576146276146c3565b5b600182039050919050565b6000600282049050600182168061464b57607f821691505b6020821081141561465f5761465e6146f2565b5b50919050565b6000614678614673836147bc565b614547565b9050919050565b600061469261468d836147bc565b614567565b9050919050565b60006146a4826145ba565b915060ff8214156146b8576146b76146c3565b5b600182019050919050565b7f4e487b7100000000000000000000000000000000000000000000000000000000600052601160045260246000fd5b7f4e487b7100000000000000000000000000000000000000000000000000000000600052602260045260246000fd5b7f4e487b7100000000000000000000000000000000000000000000000000000000600052603160045260246000fd5b7f4e487b7100000000000000000000000000000000000000000000000000000000600052603260045260246000fd5b600061478b8254614665565b9050919050565b600080fd5b600080fd5b600080fd5b600080fd5b600080fd5b6000601f19601f8301169050919050565b60008160001c9050919050565b7f5573657220686173206e6f7420626f72726f776564207468697320626f6f6b00600082015250565b7f557365722068617320616c726561647920626f72726f776564206120636f707960008201527f206f66207468697320626f6f6b00000000000000000000000000000000000000602082015250565b7f4f776e61626c653a206e6577206f776e657220697320746865207a65726f206160008201527f6464726573730000000000000000000000000000000000000000000000000000602082015250565b7f4e6f7420656e6f75676820657468657220746f207061792070656e616c747900600082015250565b7f426f6f6b206973206e6f742063757272656e746c79206e6f7420617661696c6160008201527f626c650000000000000000000000000000000000000000000000000000000000602082015250565b7f73656e64206661696c6564000000000000000000000000000000000000000000600082015250565b7f5468697320626f6f6b206973206e6f7420617661696c61626c65000000000000600082015250565b7f4f776e61626c653a2063616c6c6572206973206e6f7420746865206f776e6572600082015250565b7f496e646578206f7574206f742072616e67650000000000000000000000000000600082015250565b7f4e6f206665657320746f2062652077697468647261776e000000000000000000600082015250565b7f4e6f7420656e6f75676820657468657220746f20626f72726f7720626f6f6b00600082015250565b614a0781614574565b8114614a1257600080fd5b50565b614a1e81614586565b8114614a2957600080fd5b50565b614a35816145ba565b8114614a4057600080fd5b5056fea2646970667358221220933e85aed66fdbe1bbc45dfb431d5e3fc5d7705542b237860e00c5570b64ae6164736f6c63430008070033",
  "linkReferences": {},
  "deployedLinkReferences": {}
}